S01400004D61696E5F50726F6772616D2E7372656354
S214080000A82707203D2208003522080035220800C8
S21408001035220800352208003522080000000000B6
S214080020000000000000000000000000A1250800F5
S21408003035220800000000005D260800A1260800FA
S214080040352208003522080035220800A5320800A7
S214080050C531080035220800352208003522080078
S214080060352208003522080000000000551A08004E
S2140800706D1A0800851A08009D1A0800000000007E
S214080080000000000D05080035220800352208008B
S21408009035220800352208003522080035220800D7
S2140800A035220800000000003522080081060800F6
S2140800B035220800352208003522080035220800B7
S2140800C035220800352208003522080035220800A7
S2140800D03522080035220800352208003522080097
S2140800E0352208003522080035220800352B08007E
S2140800F09D2A080010B5054C237833B9044B13B174
S2140801000448AFF300800123237010BD4004072085
S214080110000000009435080008B5064B1BB10648D9
S2140801200649AFF300800648036813B1054B03B1D0
S214080130984708BD000000009435080044040720CE
S214080140943508000000000080B485B000AFF86061
S214080150B9607A60BB68002B07D0BB681A68FB6872
S2140801609A60BB685A68FB68DA607B68002B07D021
S2140801707B681A68FB689A617B685A68FB68DA616C
S2140801801437BD465DF8047B704700BF80B485B061
S21408019000AFF860B9607A60BB68002B07D0BB6810
S2140801A01A68FB681A60BB685A68FB685A607B68FE
S2140801B0002B07D07B681A68FB681A617B685A6848
S2140801C0FB685A611437BD465DF8047B704700BF6C
S2140801D080B483B000AF78607B6800225A617B6881
S2140801E000225A600C37BD465DF8047B704700BF96
S2140801F080B483B000AF786039603A6840F2011383
S21408020013407A6813620C37BD465DF8047B704766
S21408021080B483B000AF786039603A6840F2022351
S21408022013407A6813620C37BD465DF8047B704746
S21408023080B483B000AF78607B685B6818460C377C
S214080240BD465DF8047B704780B483B000AF786025
S2140802507B685B6918460C37BD465DF8047B7047BB
S21408026080B487B000AFF860B9607A60BB689B015D
S214080270FA6813447B617B6902221A607B694FF037
S214080280FF329A627B691B6A7B697A685A601C37F8
S214080290BD465DF8047B704780B483B000AF7860D5
S2140802A039607A683B689B01134405221A600C374C
S2140802B0BD465DF8047B704780B483B000AF7860B5
S2140802C039607A683B689B01134402221A600C372F
S2140802D0BD465DF8047B704780B485B000AFF86013
S2140802E0B9607A60FA68BB689B01134418337A6869
S2140802F05A601437BD465DF8047B704780B487B0F3
S21408030000AFF860B9607A60BB689B01FA6813446E
S2140803107B617B697A685A621C37BD465DF8047B48
S214080320704700BF80B485B000AF786039603B681E
S2140803309B017A681344FB60FB681B6A18461437EF
S214080340BD465DF8047B704780B48DB000AFF8609A
S214080350B9607A603B6002233B6108237B612023F7
S214080360BB618023FB61BB6BDB0B3B620023FB623C
S2140803701BE0FB6A9B0007F13002134453F8203C4D
S214080380BA68B2FBF3F3BB62BB6A1B0C7B62FA6803
S214080390BB6A9A4201D9002322E0FA687B6A9A422D
S2140803A000D305E0FB6A0133FB62FB6A042BE0D945
S2140803B0FB6A042B01D9002312E07B68002B08D0C7
S2140803C0FB6A9B0007F13002134453F8202C7B6825
S2140803D01A603B68002B02D03B68FA6A1A60012351
S2140803E018463437BD465DF8047B704780B483B042
S2140803F000AF786039607B685B6903F00103002B07
S21408040001D1012305E07B689B69DAB23B681A7064
S214080410002318460C37BD465DF8047B704700BFBE
S21408042080B483B000AF0346FB71084B97F90720EA
S2140804305209F97901F01F01012000FA01F143F889
S21408044022100C37BD465DF8047B704700E100E0DB
S21408045080B483B000AF78607B68072B25D801A2EC
S21408046052F823F0850408008B040800910408005D
S214080470970408009B0408009F040800A3040800CB
S214080480A70408004FF4FA4310E04FF400430DE0C9
S2140804904FF400430AE0084B08E0084B06E0084B18
S2140804A004E0074B02E0064B00E0002318460C3732
S2140804B0BD465DF8047B704700093D0000127A00CF
S2140804C0001BB70080B500AF0620044B98470246CD
S2140804D01346DB009B1A5B00184680BD51040800D3
S2140804E080B500AF024B984703465B08184680BDA8
S2140804F0C504080080B582B000AF78607868024B03
S21408050098470837BD4680BD211D080080B582B0D3
S21408051000AF4648464B98477860464B1B78012BF9
S21408052072D17B6803F48053002B7CD042480021AC
S214080530424B9847424B1B78642202FB03F2414B1E
S21408054013441A46404B1A603D4B1B783D4A6421BB
S21408055001FB03F313441B78612B02D13B203B4B72
S21408056098473B4B1A68384B5A60354B1B786422C1
S21408057002FB03F2374B13441A46374B1A60374BC5
S2140805801A68354B5A60364B1B6818462E49324A4D
S214080590344B9847344B1B78002B08D02C4B6422DE
S2140805A01A602E4B64221A602F4B00221A70244BB6
S2140805B01B78C3F10103DAB2214B1A70204B1B7863
S2140805C0642202FB03F21F4B13441A461E4B1A60A2
S2140805D01D4B64225A601A4B1B78642202FB03F2F6
S2140805E01C4B13441A461C4B1A601B4B64225A6059
S2140805F01B4B1B6818461449174A1C4B98470E484D
S21408060000211B4B98470EE07B6803F00103002B84
S21408061009D006481749184B9847164B1B680348D5
S2140806201946164B98470837BD4680BD00800940D6
S2140806308D2008000800072000000840B9020800BE
S214080640F00507205C0407209407072035170800E4
S2140806500000072024050720880707200400072035
S2140806609007072049010800F10507208D010800BA
S21408067099020800EC05072011210800DD20080073
S21408068080B582B000AF00237B601E4800211E4B59
S214080690984738603B6803F01003002B2FD01B4B9D
S2140806A01B78012B2BD11A4B1B681846194B9847F9
S2140806B00346C3F164037B607B68002B1FD07B680E
S2140806C0642B1CD0144B01221A70114B1B68184659
S2140806D0124B98470346002B06D1114B64221A602A
S2140806E0104B7A681A6005E00D4B7A681A600D4B55
S2140806F000221A60064B1B6818460B4B98470837AB
S214080700BD4680BD000008402503080008000720F5
S2140807109007072031020800F10507204902080063
S2140807200000072004000720D1010800B0B586B0F5
S21408073000AF134B3C461D460FCD0FC495E803008B
S21408074084E8030011200F4B98470F4B9847034641
S2140807503A460E4811461A460D4B98470B484FF036
S214080760FF310C4B984709480B4B984707480B4BEB
S214080770984711200A4B98471837BD46B0BD00BFAA
S214080780C4340800F5040800E104080000800940A5
S214080790711F080071200800F51F080025200800B2
S2140807A02104080090B585B002AF174B984702465B
S2140807B0164B1A601B20164B9847144B1968134B98
S2140807C018683A1D3B4600900120124CA0473B682B
S2140807D043F48043104800211A46104B98470B4BA9
S2140807E01A687B68B2FBF3F30B4800211A460C4BD9
S2140807F098471B200B4B98470748002110220A4BA6
S21408080098470C37BD4690BDE1040800F40507205C
S214080810211D08004903080000000840610208007E
S214080820D902080021040800FD02080080B500AFC0
S2140808300F48104B98470E480F4B98470F4B00220F
S2140808401A600E4B00225A600D4B00221A600C4BA1
S21408085000225A600B4B1B6818460849084A0A4B80
S21408086098470348094B98470148094B984780BD65
S214080870008009403D2008000D2008009407072046
S21408088088070720900707208D010800F51F080035
S2140808902520080080B582B000AF5C4B98475C4BBB
S2140808A098475C4B98475C485C4B984702465C4BBD
S2140808B01A605B4B1B68184640F20111594B984763
S2140808C0594B9847594B1B78642202FB03F2584B46
S2140808D013441A46574B1A60564B64225A60534BB9
S2140808E01B78642202FB03F2534B13441A46534BFD
S2140808F01A60524B64225A60494B1B6818464D4989
S2140809004E4A4F4B98474F4B01221A7042480121D6
S2140809104D4B984740484FF480514C4B98474C48AD
S21408092000214C4B98470023BB71BB1D4A4819460B
S2140809304A4B98470346FB71FB79002B64D1BB7979
S214080940532B02D0732B00D05EE03E4B1B78012B56
S21408095015D1334B1B68184640F20221404B984786
S2140809602D484FF48051384B98473E4B98472A48B5
S2140809700121364B9847334B00221A7043E0314B1F
S2140809801B78002B3FD1264B1B68184640F20111F6
S214080990244B9847334B9847334B64221A60334BA3
S2140809A064221A60214B00221A70204B1B7864229E
S2140809B002FB03F21E4B13441A461E4B1A601D4BCD
S2140809C064225A60194B1B78642202FB03F21A4B06
S2140809D013441A46194B1A60184B64225A60104B77
S2140809E01B6818461349154A154B98470A480121AB
S2140809F0154B984708484FF48051144B9847114BAD
S214080A0001221A70FFE700BF8DE700BF590D0800E6
S214080A10C10D08002D07080000800940592108006C
S214080A2090070720F1010800A5070800F005072031
S214080A305C0407209407072024050720880707205A
S214080A408D010800080007207120080055200800BE
S214080A50000008409902080000080E40ED03080050
S214080A60110208002D0808000000072004000720CF
S214080A7080B582B000AF78607B68072B2ED801A2BD
S214080A8052F823F0DD0A0800A50A0800AD0A080097
S214080A90B50A0800BD0A0800C50A0800CD0A0800FD
S214080AA0D50A080000200F4B984717E001200D4B89
S214080AB0984713E000200C4B98470FE010200A4B8D
S214080AC098470BE02020084B984707E00020074B84
S214080AD0984703E00120054B984700BF0837BD46F6
S214080AE080BD00BF391B0800A91B0800491C080068
S214080AF080B582B000AF78607B68072B26D801A245
S214080B0052F823F0250B0800290B0800290B0800CB
S214080B103B0B08003B0B08003B0B08003B0B080090
S214080B203B0B0800012312E00B4B98470346002BAB
S214080B300CBF00230123DBB209E0084B98470346A5
S214080B40002B0CBF00230123DBB200E0002318466D
S214080B500837BD4680BD00BF751B0800B51C0800D9
S214080B6080B483B000AF78607B68072B25D801A2D5
S214080B7052F823F0950B08009B0B0800A10B080001
S214080B80A70B0800AB0B0800AF0B0800B30B080058
S214080B90B70B08004FF4FA4310E04FF400430DE09B
S214080BA04FF400430AE0084B08E0084B06E0084B01
S214080BB004E0074B02E0064B00E0002318460C371B
S214080BC0BD465DF8047B704700093D0000127A00B8
S214080BD0001BB70080B582B000AF0346FB7100BFAC
S214080BE0FB791846054B9847034683F00103DBB2AA
S214080BF0002BF5D10837BD4680BD00BFF10A0800B6
S214080C0080B586B000AFF8607A603B600B46FB7232
S214080C107B68002B07D13B68002B04D1FB684FF498
S214080C2070021A6019E0FB7A18460D4B9847024680
S214080C307B68B2FBF3F37B617B693A6802FB03F3DC
S214080C407B613B68013B1A04064B13407A68D2B2B4
S214080C50134343F47C52FB681A601837BD4680BDC0
S214080C60610B08000000FF0780B582B000AF78600F
S214080C7039603B68002B08D1084B9847084B7A68C0
S214080C80126842F000529A6205E0054B7A681268CC
S214080C9042F48032DA610837BD4680BDD11C0800B0
S214080CA000060E4080B582B000AF78607B68002BE7
S214080CB003D1054B9847034602E0044B9847034682
S214080CC018460837BD4680BDE91C0800051D080003
S214080CD080B582B000AF0346FB71FB79033B042B5B
S214080CE008D8FB791846054B9847FB791846044BF5
S214080CF0984700E000BF0837BD4680BD710A080067
S214080D00D50B080080B582B000AF786000BF786861
S214080D10044B98470346002BF9D00023184608379B
S214080D20BD4680BDA50C080080B500AF0620044B64
S214080D30984702461346DB009B1A5B00184680BDA0
S214080D40610B080080B500AF024B984703465B0866
S214080D50184680BD290D080090B583B000AF104B2B
S214080D609847034618460F4B984706200E4B984759
S214080D703B1D1846062101220E230C4CA0473B1D9E
S214080D80184600210A4B984700200A4B984710201F
S214080D90094B984700BF094B98470C37BD4690BD8E
S214080DA0450D080065240800D10C0800010C080051
S214080DB0690C0800050D0800B51A0800E5220800A9
S214080DC080B500AF324B4FF400425A6001204FF016
S214080DD00061304B984700204FF000612D4B984734
S214080DE034204FF040512B4B984735204FF0405158
S214080DF0284B98472F204FF00061264B98472E2007
S214080E004FF00061234B98478F204FF04051214BFD
S214080E10984790204FF040511E4B984757204FF068
S214080E2040511C4B984757201B4B98473B204FF088
S214080E306051184B984755204FF06051154B98470E
S214080E4056204FF06051134B984787201349114B93
S214080E509847372012490F4B984712484FF440716D
S214080E604FF00062104B98470A204FF00061094B7C
S214080E7098470B204FF00061064B98478E204FF09E
S214080E804051044B98478E20084B984780BD00BFBA
S214080E90501A0E4095170800CD160800790000284D
S214080EA059000028000E0E40D11808000117080047
S214080EB080B483B000AF786039607B683A681A609F
S214080EC00C37BD465DF8047B704700BF80B483B01E
S214080ED000AF786039607B683A685A600C37BD4660
S214080EE05DF8047B704700BF80B582B000AF7860BD
S214080EF07B685B681846024B98470837BD4680BD36
S214080F00CD16080080B582B000AF78607B681B6895
S214080F101846024B98470837BD4680BD011708009B
S214080F2080B58AB000AFF860B9607A607B6846F230
S214080F30A81202FB03F2BB6813445A1E7B6846F2EB
S214080F40A81101FB03F3B2FBF3F3802B01D90023AE
S214080F5085E0BB685A087B684FF4FA5101FB03F337
S214080F609A4201D200237AE0082387F827304FF008
S214080F70FF333B620823FB772BE0FB7F7A6802FB94
S214080F8003F34FF47A7202FB03F3BA68B2FBF3F387
S214080F90802B1BD8FB7F7A6802FB03F34FF47A7228
S214080FA002FB03F2BB68B3FBF2F102FB01F29B1AE9
S214080FB0BB61BA693B6A9A4208D2BB693B62FB7F4F
S214080FC087F827303B6A002B00D105E0FB7F01330A
S214080FD0FB77FB7F192BD0D997F827307A6802FB66
S214080FE003F34FF47A7202FB03F3BA68B2FBF3F327
S214080FF0FB75FB7D012B01D8002330E097F82730DE
S214081000A3F1080213465B0013445B00164A134418
S2140810103B61F868154B98473B69DB78013B03F062
S21408102007023B699B78013B1B0103F070031A43D8
S2140810303B695B78013B1B0203F4E0631A433B6998
S2140810401B79013B1B0303F440531A43FB7D013B0A
S2140810501B0403F4FE031A43FB685A61012318466F
S2140810602837BD4680BD00BFDC34080019110800CB
S21408107080B586B000AFF860B9607A60F868B9687D
S2140810807A68174B984778617B69002B01D1002353
S21408109021E0F868134B9847F868134B98470023E5
S2140810A07B6100233B6106E0F868104B984778613F
S2140810B03B6901333B617B6903F40013002B03D1C2
S2140810C03A690B4B9A42EFD93A690A4B9A4201D1D0
S2140810D0002300E0012318461837BD4680BD00BF30
S2140810E0210F0800B1140800F91008007111080053
S2140810F09F860100A086010080B483B000AF7860A8
S2140811007B681B6843F001027B681A600C37BD4693
S2140811105DF8047B704700BF80B483B000AF78608A
S2140811207B681B6823F001027B681A600C37BD4693
S2140811305DF8047B704700BF80B483B000AF78606A
S21408114039607B683A685A600C37BD465DF8047BA0
S214081150704700BF80B483B000AF786039607B68A2
S2140811603A689A600C37BD465DF8047B704700BF46
S21408117080B483B000AF78607B681B6918460C376C
S214081180BD465DF8047B704780B485B000AF7860D4
S2140811900B46FB707B685B6A23F0FF03FB60FA78FC
S2140811A0FB681A437B685A621437BD465DF8047BB1
S2140811B0704700BF80B483B000AF78600B46FB7002
S2140811C0FB787A685B01134403F504731B681846BA
S2140811D00C37BD465DF8047B704700BF80B485B009
S2140811E000AF786039603B681B68FB73FB7B3A6826
S2140811F09279120402F4702242F4000279685B01C4
S2140812000B4403F506735A601437BD465DF8047B35
S214081210704700BF80B485B000AF786039603B681F
S2140812201B68FB733B681B79002B2ED1FB7B7A6807
S21408123010335B01134400221A60FB7B7A68103374
S2140812405B01134400225A60FB7B7A685B011344F7
S21408125003F5027300221A60FB7B7A685B0113446D
S21408126003F5047300225A60FB7B7A685B0113441B
S21408127003F5067300221A60FB7B7A685B01134449
S21408128003F5067300225A604EE0FB7BFA7B79680A
S214081290103252010A44126822F470213A68D27950
S2140812A012040A43796810335B010B441A603B68E2
S2140812B05B79002B15D0FB7B3A68D26842F0005267
S2140812C0796810335B010B445A60FB7B3A681269F5
S2140812D042F0005279685B010B4403F502731A600A
S2140812E010E0FB7B3A68D268796810335B010B44E0
S2140812F05A60FB7B3A68126979685B010B4403F510
S21408130002731A60FB7BFA7B7968103252010A4432
S214081310126822F0E0613A68127912060A43796880
S21408132010335B010B441A601437BD465DF8047B26
S214081330704700BF80B586B000AF7860396000237C
S2140813407B613B681B68FB743B689B68FB60FB68BB
S21408135003F40003002B06D0FB6803F08073002B11
S21408136001D002237B61FB7C7A685B01134403F59A
S21408137002735B6823F060423B685A61FB6803F4BB
S21408138070231B0CDAB23B689A71FB7C7A685B01A7
S214081390134403F504735A683B689A613B689B7963
S2140813A0042B08D9FB7C7A685B01134403F50673A3
S2140813B01A683B68DA61FB7C7A685B01134403F5BC
S2140813C004731A683B689A603B689B68FB60FB6816
S2140813D003F08073002B03D07B6943F004037B6122
S2140813E078683968034B98477B6918461837BD46AE
S2140813F080BD00BFDD11080080B584B000AF7860FE
S21408140039603B681B68FB73FB7B78681946274B7B
S214081410984702463B689A603B689B68BB60BB6817
S21408142003F40003002B01D101233BE03B685B7902
S214081430002B0BD0FB7B3A68126942F000527968A1
S2140814405B010B4403F502731A6008E0FB7B3A68FD
S214081450126979685B010B4403F502731A60FB7B1B
S2140814603A68926979685B010B4403F504735A601D
S2140814703B689B79042B08D9FB7B3A68D269796864
S2140814805B010B4403F506731A60FB7B3A68927996
S214081490120402F4702279685B010B4403F50673A4
S2140814A05A60002318461037BD4680BDB51108009F
S2140814B080B58CB000AF786000233B74002387F8B3
S2140814C02F300DE097F82F30FB6007F10C03786893
S2140814D01946074B984797F82F30013387F82F306F
S2140814E097F82F30072BEDD93037BD4680BD00BFA3
S2140814F01512080080B485B000AFF860B9607A604D
S2140815007B68002B03D0FB68BA685A6602E0FB6863
S214081510BA681A661437BD465DF8047B704700BF84
S21408152080B487B000AFF860B9607A60FB687A6804
S2140815305A64BB68B3F1805F1FD0B3F1805F05D8EB
S214081540002B27D0B3F1006F0AD01FE0B3F1405F3D
S21408155020D0B3F1605F1DD0B3F1205F1AD015E03C
S214081560FB681B6F7B61FB681A6F7B68D9437B69D6
S2140815700B401A40FB681A6708E0FB681B6F7B6124
S2140815807A687B691A43FB681A6700BFFB687A6843
S2140815905A6000E000BF1C37BD465DF8047B704704
S2140815A080B584B000AFF860B9607A60F868B9684A
S2140815B0184B98477B6803F00103F868B9681A4621
S2140815C0154B98477B6803F00A03002B03D0FB688B
S2140815D0BA681A6202E0FB68BA685A627B6803F067
S2140815E00203002B04D0FB68BA68C3F8802008E022
S2140815F07B6803F00803002B03D0FB68BA68C3F8BF
S2140816008020FB68BA685A61FB68BA681A601037A7
S214081610BD4680BD81160800F514080080B584B064
S21408162000AFF860B9607A603B60F868B968124B3A
S2140816309847F868B968BA69104B98473B68002B12
S21408164003D0FB68BA681A6502E0FB68BA685A6590
S2140816507B68002B03D0FB68BA681A6302E0FB6855
S214081660BA685A63FB68BA681A61FB68BA681A608F
S2140816701037BD4680BD00BF81160800F514080067
S21408168080B483B000AF786039607B683A685A6483
S2140816900C37BD465DF8047B704700BF80B483B046
S2140816A000AF78607B68DB6C18460C37BD465DF883
S2140816B0047B704780B483B000AF78607B689B6C0F
S2140816C018460C37BD465DF8047B704780B485B075
S2140816D000AF78607B685B0903F5001303F20773B5
S2140816E05B02FB607B6803F01F03012202FA03F328
S2140816F01A46FB681A631437BD465DF8047B7047C4
S21408170080B485B000AF78607B685B0903F500138A
S21408171003F207735B02FB607B6803F01F0301227A
S21408172002FA03F31A46FB685A631437BD465DF897
S214081730047B704780B485B000AF78607B685B092F
S21408174003F5001303F207735B02FB60FB689A6BF2
S2140817507B6803F01F03012101FA03F31340002BF3
S21408176009D07B6803F01F03012202FA03F31A4626
S214081770FB685A6308E07B6803F01F03012202FA3D
S21408178003F31A46FB681A631437BD465DF8047BF4
S214081790704700BF90B587B002AF786039607B6845
S2140817A05B0903F5001303F207735B02FB603B68F3
S2140817B003F0F043B3F1205F48D0B3F1205F06D8BA
S2140817C0B3F1006F0AD0B3F1805F23D070E0B3F1B5
S2140817D0405F47D0B3F1605F44D069E07B6803F0B0
S2140817E01F03012202FA03F3F8684FF000611A4655
S2140817F0334B98477B6803F01F03012202FA03F372
S2140818001A463B6803F00103F86811461A462D4B42
S21408181098474FE07B6803F01F03012202FA03F3A0
S214081820F8684FF080511A46254B98477B6803F0B6
S2140818301F03012202FA03F31A463B6803F001036A
S214081840F86811461A461F4B984733E07B6803F042
S2140818501F03012202FA03F3F86819463A681A4B7E
S214081860984727E07B6803F01F03012202FA03F378
S21408187019463B6803F06053B3F1605F14BF00235A
S2140818800123DBB21A463B6803F00403002B0CBFA7
S21408189000230123DBB2386800F0010000280CBFE3
S2140818A000200120C0B20090F868084CA04701E06C
S2140818B0002300E0012318461437BD4690BD00BF3C
S2140818C021150800F5140800A11508001D160800C3
S2140818D090B587B002AFF860B9607A607B6803F0AD
S2140818E0F043B3F1205F2ED0B3F1205F06D8B3F1F2
S2140818F0006F0AD0B3F1805F16D04AE0B3F1405FBC
S21408190027D0B3F1605F24D043E0F8684FF0006159
S214081910BA68234B98477B6803F00103F868B968F0
S2140819201A46204B984736E0F8684FF08051BA6858
S2140819301B4B98477B6803F00103F868B9681A469A
S214081940184B984727E0F868B9687A68164B98479E
S21408195021E07B6803F06053B3F1605F14BF002397
S2140819600123DBB21A467B6803F00403002B0CBF86
S21408197000230123DBB2796801F0010100290CBFBE
S21408198000210121C9B20091F868B968074CA04740
S21408199001E0002300E0012318461437BD4690BD39
S2140819A021150800F5140800A11508001D160800E2
S2140819B080B584B000AF786039607868224B984765
S2140819C0F8607868214B98470346FA681340FB602E
S2140819D0FB68002B35D00023BB602FE01C4ABB6891
S2140819E01B0113441A683B689A4224D1184ABB68FC
S2140819F01B0113445A68FB681340002B1BD0144A7B
S214081A00BB681B01134408335B681149BA681201A6
S214081A100A4411680E48BA68120102445268084619
S214081A20114698470A4ABB681B0113445B68DB43A8
S214081A30FA681340FB60BB680133BB60FB68002B89
S214081A40CCD11037BD4680BD9D160800B5160800D7
S214081A50F805072080B500AF02480B21024B9847CF
S214081A6080BD00BF000E0E40B119080080B500AF5B
S214081A7002480C21024B984780BD00BF00100E405C
S214081A80B119080080B500AF02480D21024B9847EF
S214081A9080BD00BF00120E40B119080080B500AF27
S214081AA002480E21024B984780BD00BF00140E4026
S214081AB0B119080080B485B000AF78601D4B1D4A88
S214081AC0126B22F070017A680A431A634FF40063B7
S214081AD0FB6007E0FB68002B01D1012323E0FB68CD
S214081AE0013BFB60134B9B6E03F00803002BF1D001
S214081AF0104B104A126B22F0030242F002021A63DD
S214081B004FF40063FB6007E0FB68002B01D101235C
S214081B1009E0FB68013BFB60064B9B6E03F008037D
S214081B20002BF1D0002318461437BD465DF8047B19
S214081B30704700BF00060E4080B483B000AF7860E0
S214081B407B68012B07D10A4A094B9B6843F025435B
S214081B5043F480139360064A054B1B6843F02543FD
S214081B6043F0080313600C37BD465DF8047B7047E6
S214081B70101A0E4080B400AF094B5B6903F080036F
S214081B80002B07D0074B9B6E03F08003002B01D079
S214081B90012300E000231846BD465DF8047B704725
S214081BA0101A0E4000060E4080B485B000AF78606C
S214081BB00023FB60214B1B6A03F00103002B0ED0A9
S214081BC01E4A1E4B1B6A23F45C1323F078037968BD
S214081BD00B4343F45C1343F0080313620BE0012342
S214081BE0FB60164A154B196A154B0B407968194362
S214081BF0144B0B43136200BF104B9B6E03F4003369
S214081C00002BF9D00D4A0D4B1B6A23F09B7323F467
S214081C10803343F45C131362FB68002B09D0074A31
S214081C20064B1B6A23F45C1323F0010343F45C138E
S214081C3013621437BD465DF8047B704700060E40F5
S214081C4086C0C8FF093F370080B483B000AF78600D
S214081C507B68002B08D01249114B1B6A114A1A40A0
S214081C60114B13430B6216E00D490D4B1B6A0F4AC6
S214081C701A400F4B13430B6200BF094B9B6E03F0D1
S214081C800103002BF9D0064A054B1B6A43F09B73E9
S214081C9043F4803313620C37BD465DF8047B704707
S214081CA000060E40FCFFC8FE02003701FCC0C8FF55
S214081CB0013F370080B400AF044B9B6E03F48033BB
S214081CC01846BD465DF8047B704700BF00060E4008
S214081CD080B400AF034B4FF000529A62BD465DF8E1
S214081CE0047B704700060E4080B400AF044B9B6E22
S214081CF003F002031846BD465DF8047B704700BF34
S214081D0000060E4080B400AF044B9B6E03F0400301
S214081D101846BD465DF8047B704700BF00060E40B7
S214081D2080B483B000AF78607B682C2B01D9012380
S214081D302FE07B681F2B13D8194B9A697B68012103
S214081D4001FA03F31A407B68012101FA03F39A4269
S214081D501ED0134B7A68012101FA02F21A6117E0C5
S214081D607B68203B7B600E4BD3F808217B680121FB
S214081D7001FA03F31A407B68012101FA03F39A4239
S214081D8006D0074B7A68012101FA02F2C3F800214F
S214081D90002318460C37BD465DF8047B704700BF25
S214081DA000060E4080B483B000AF78600B467B8098
S214081DB07B8843F480227B681A60002318460C3719
S214081DC0BD465DF8047B704780B485B000AF786088
S214081DD039607B681B68FB60FA683B681343FB60E6
S214081DE07B68FA681A601437BD465DF8047B70474E
S214081DF080B485B000AF786039600023FB607B68EC
S214081E001B68FB603B68DB43FA681340FB607B6833
S214081E10FA681A601437BD465DF8047B704700BF41
S214081E2080B483B000AF78607B68DB6818460C37F0
S214081E30BD465DF8047B704780B584B000AF786017
S214081E4039603B68002B01D1012316E07B681B68CC
S214081E5003F48033FB600B484FF480310A4B9847F5
S214081E603B685A1E7B685A60FB68002B04D00548FE
S214081E704FF48031054B9847002318461037BD4667
S214081E8080BD00BF301A0E40F11D0800C91D0800AD
S214081E9080B489B000AFF860B9607A60BB681A0190
S214081EA07B689A4202D81023FB6101E00823FB6195
S214081EB07B68DA00FB69B96801FB03F35B081A4420
S214081EC0FB69B96801FB03F3B2FBF3F3BB61BB69BB
S214081ED0DB087B61BB6903F007033B617B69002B6A
S214081EE003D07B69B3F5803F01D301230FE0FB697C
S214081EF0082B05D1FB685B6843F40022FB685A6030
S214081F003B691A047B691A43FB681A620023184661
S214081F102437BD465DF8047B704700BF80B582B0A5
S214081F2000AF786078680D4B98477B6800225A6047
S214081F307B6800225A627B6800229A627868084B9F
S214081F4098477868074B98477868074B98477868A3
S214081F50064B98470837BD4680BD00BFD521080008
S214081F600D2008003D200800A5200800C120080014
S214081F7080B584B000AFF860B9607A60F8681A4B2C
S214081F8098471A4B00221A60BB68002B09D0BB681A
S214081F901B68F86819467A68154B98470346002B5D
S214081FA001D001231BE0BB685A68BB689B681A43CC
S214081FB0BB681B691A43BB68DB681A430B4B1B6874
S214081FC01A430A4B1A60094B1A68084B1A60FB68D2
S214081FD05A68064B1B681A43FB685A600023184663
S214081FE01037BD4680BD00BF1D1F080068060720C5
S214081FF0911E080080B483B000AF78607B684022EA
S2140820001A600C37BD465DF8047B704780B483B011
S21408201000AF78607B6888221A600C37BD465DF88A
S214082020047B704780B483B000AF78607B6810226A
S2140820301A600C37BD465DF8047B704780B483B0E1
S21408204000AF78607B6824221A600C37BD465DF8BE
S214082050047B704780B483B000AF786039607B68D3
S2140820603A689A600C37BD465DF8047B704700BF37
S21408207080B483B000AF786039607B683A68DA600D
S2140820800C37BD465DF8047B704700BF80B483B04C
S21408209000AF78607B685B6918460C37BD465DF80C
S2140820A0047B704780B483B000AF78607B684FF4D9
S2140820B080721A600C37BD465DF8047B704700BF17
S2140820C080B483B000AF78607B684FF400221A6053
S2140820D00C37BD465DF8047B704700BF80B483B0FC
S2140820E000AF786039607B685B6903F00203002BF9
S2140820F001D1012305E03B68C3F308027B68DA6177
S214082100002318460C37BD465DF8047B704700BFB1
S21408211080B485B000AF786039604FF47A73FB609E
S21408212006E0FB685A1EFA60002B01D101230CE07A
S2140821307B685B6903F00103002BF2D07B689B6920
S214082140C3F308023B681A60002318461437BD46D6
S2140821505DF8047B704700BF80B485B000AF786038
S2140821600023FB607A68134B9A4203D1124BFB603C
S214082170FB6818E07A68114B9A4203D1104BFB6053
S214082180FB6810E07A680F4B9A4203D10E4BFB604F
S214082190FB6808E07A680D4B9A4203D10C4BFB604B
S2140821A0FB6800E0FB6818461437BD465DF8047BFC
S2140821B0704700BF008009400081094000C0094000
S2140821C000C1094000000A4000010A4000400A40D9
S2140821D000410A4080B483B000AF78607B68044A48
S2140821E0C3F8E4200C37BD465DF8047B704700BF93
S2140821F00041535580B483B000AF78607A68054BC9
S2140822009A4202D17B68044A1A600C37BD465DF8CC
S214082210047B7047501A0E40010000A580B483B0B6
S21408222000AF78607B689B6818460C37BD465DF83B
S214082230047B704780B400AFFEE700BF80B582B06D
S21408224000AF1E4B7B601E4B3B607A683B689A4229
S2140822500CD007E03B681A1D3A607A68111D796051
S21408226012681A603A68174B9A42F3D3164B3B60CB
S21408227004E03B681A1D3A6000221A603A68134B5D
S2140822809A42F6D3124B7B60124A7B6823F060436F
S21408229023F07F0393607B68B3F1005F09D37A6805
S2140822A00D4B9A4205D80B4B0A4A926842F00052E8
S2140822B09A600A4B98470A4B9847FEE794350800F9
S2140822C0000007204004072040040720A407072032
S2140822D00000080000ED00E0FFFF0F20153308009F
S2140822E06931080080B400AF564B1B6B03F003033C
S2140822F0032B00F28A8001A151F823F00D23080071
S2140823002D2308007D2308007D2308004E4B5B69BB
S21408231003F08003002B04D04C4B4FF400421A60A5
S21408232073E04A4B4FF4FA421A606EE0454B1B6A5C
S21408233003F08073002B03D0444B454A1A601CE018
S214082340424B444A1A603F4B1B6A03F07003102B3B
S21408235004D0202B08D0002B0ED00EE03B4B1B6879
S2140823605A003A4B1A6008E0384B1A6813465B0066
S2140823701A44364B1A6000E000BF46E0314B1B6A31
S21408238003F08073002B03D0304B314A1A601CE0F0
S2140823902E4B304A1A602B4B1B6A03F07003102B27
S2140823A004D0202B08D0002B0ED00EE0274B1B683D
S2140823B05A00264B1A6008E0244B1A6813465B003E
S2140823C01A44224B1A6000E000BF1E4B1B6B03F03A
S2140823D00303022B15D11B4B9A6A1F4B13401B0C89
S2140823E001331A4A126802FB03F2184B1A60174B9D
S2140823F01A68144B9B6ADBB2B2FBF3F2134B1A60F3
S21408240002E0124B154A1A6000BF0E4B1B6B03F016
S2140824107003702B08D10D4B1A68114BA3FB0213DF
S2140824205A080A4B1A6009E0084B1A68054B1B6BDA
S21408243003F070031B09DA40044B1A60BD465DF8CA
S214082440047B704700060E40101A0E400C0007204A
S214082450001BB70000093D000000FF07001C4E0ED9
S214082460ABAAAAAA80B483B000AF78607A681F4B7C
S2140824709A4206D81E4B00221A601E4B00221A608B
S2140824802EE07A681C4B9A4208D8194B4FF4807293
S2140824901A60184B4FF480721A6021E07A68174B5E
S2140824A09A4208D8124B4FF400721A60114B4FF438
S2140824B000721A6014E07A68114B9A4208D80C4BDE
S2140824C04FF440721A600B4B4FF440721A6007E0E4
S2140824D0074B4FF480621A60064B4FF480621A600E
S2140824E00C37BD465DF8047B704700BF9F52570106
S2140824F0000A0E40000C0E407FCC06023FB72803A9
S2140825007F2FA60480B485B000AF786039607B68FA
S2140825105B68FB603B68FA685A60FB689A683B68C9
S2140825209A60FB689B683A685A60FB683A689A60E3
S2140825303B687A681A617B681B685A1C7B681A6055
S2140825401437BD465DF8047B704700BF80B485B07D
S21408255000AF78607B681B69FB607B685B687A689D
S21408256092689A607B689B687A6852685A60FB68CB
S2140825705A687B689A4203D17B689A68FB685A60F7
S2140825807B6800221A61FB681B685A1EFB681A6083
S214082590FB681B6818461437BD465DF8047B704711
S2140825A0074B19680868B0E8F00F80F30988BFF38E
S2140825B06F8F4FF0000080F311884EF00D0E7047B5
S2140825C06C06072080B500AF0C4B98470C4B1B6871
S2140825D05A1C0B4B1A60BFF34F8FBFF36F8F084B15
S2140825E01B68012B08D1074B1B6803F01F03002B41
S2140825F002D0024B9847FEE780BD00BF4126080080
S2140826001000072004ED00E080B500AF094B1B68FA
S214082610002B02D1084B9847FEE7064B1B685A1E4C
S214082620044B1A60034B1B68002B02D10020034B97
S214082630984780BD10000720412608005526080048
S214082640EFF311804FF0A00181F311887047002343
S214082650184600BF80F31188704700BFEFF3098063
S214082660BFF36F8F0D4B1A6820E9F00F10602DE945
S21408267008404FF0A00080F3118800F0E9F84FF00A
S214082680000080F31188BDE8084019680868B0E8BB
S214082690F00F80F30988BFF36F8F70476C0607202A
S2140826A080B500AF074B9847074B98470346002B63
S2140826B003D0064B4FF080521A600020044B984710
S2140826C080BD00BF41260800D526080004ED00E0BE
S2140826D05526080080B586B000AF00237B614D4BB9
S2140826E01B68002B40F086804B4B1B685A1C4A4BD5
S2140826F01A60494B1B683B613B69002B18D1474B56
S2140827001B681B68002B02D0454B9847FEE7434BD7
S2140827101B68FB60434B1A68404B1A60414BFA68CB
S2140827201A60414B1B685A1C3F4B1A603F4B984730
S2140827303F4B1B683A699A424DD3384B1B681B6857
S214082740002B01D1012300E00023002B04D0384BD6
S2140827504FF0FF321A603EE0304B1B68DB68DB68E0
S214082760BB60BB685B687B603A697B689A4203D249
S2140827702F4B7A681A602EE0BB68043318462D4B38
S2140827809847BB689B6A002B04D0BB68183318466A
S214082790284B9847BB68DB6A01229A40264B1B6881
S2140827A01A43254B1A60BB68DA6A13469B00134423
S2140827B09B00224A1A44BB68043310461946204B2D
S2140827C09847BB68DA6A1F4B1B68DB6A9A4201D3D4
S2140827D001237B61B1E71B4B1B68DA6A174913466E
S2140827E09B0013449B000B441B68012B07D901234D
S2140827F07B6104E0144B1B685A1C134B1A60134B7E
S2140828001B68002B01D001237B617B6918461837AB
S214082810BD4680BDF0060720DC060720D406072044
S21408282041260800D8060720EC0607204D29080090
S214082830140007204D250800E0060720700607202C
S214082840052508006C060720E4060720E80607208A
S21408285080B584B000AF344B1B68002B03D0334BD5
S21408286001221A605CE0314B00221A60304B1B686C
S2140828701A682F4B1B681B6B9A4208D82C4B1A6891
S2140828802B4B1B683433104619462A4B9847284B5F
S2140828901B681B6B184628491422284B9847034682
S2140828A0002B08D0224B1A68214B1B68343310467D
S2140828B01946204B9847224B1B687B607B68B3FA07
S2140828C083F3FB70FB78C3F11F03FB601D49FA68AE
S2140828D013469B0013449B000B441B68002B02D135
S2140828E0194B9847FEE7FA6813469B0013449B006B
S2140828F0144A1344BB60BB685B685A68BB685A6076
S214082900BB685A68BB6808339A4204D1BB685B68E0
S2140829105A68BB685A60BB685B68DA68044B1A601A
S2140829201037BD4680BD00BFF0060720E806072022
S2140829306C060720B13108004835080065330800E2
S214082940E0060720700607204126080080B483B0FA
S21408295000AF0E4B1B681B68002B01D1012300E05B
S2140829600023002B04D00A4B4FF0FF321A6008E011
S214082970064B1B68DB68DB687B607B685A68044B21
S2140829801A600C37BD465DF8047B7047D4060720EE
S2140829901400072080B483B000AF0346FB71084BD1
S2140829A097F907205209F97901F01F01012000FA6A
S2140829B001F143F822100C37BD465DF8047B7047DA
S2140829C000E100E080B483B000AF0346FB71094B1A
S2140829D097F907205209F97901F01F01012000FA3A
S2140829E001F1203243F822100C37BD465DF8047B0F
S2140829F0704700BF00E100E080B483B000AF7860A5
S214082A007B68072B25D801A252F823F02D2A080048
S214082A10332A0800392A08003F2A0800432A0800F3
S214082A20472A08004B2A08004F2A08004FF4FA43A2
S214082A3010E04FF400430DE04FF400430AE0084B63
S214082A4008E0084B06E0084B04E0074B02E0064B9C
S214082A5000E0002318460C37BD465DF8047B704737
S214082A6000093D0000127A00001BB70080B500AFD1
S214082A700620044B984702461346DB009B1A5B0069
S214082A80184680BDF929080080B500AF024B984764
S214082A9003465B08184680BD6D2A080080B582B0DC
S214082AA000AF1B481B491C4B98471C481C4B9847B3
S214082AB038603B68DBB2002B26D00023FB7120E091
S214082AC0FB7916481946174B984738603B6803F455
S214082AD00003002B12D0FA790D4B1A600C4B3A689B
S214082AE09A600E480A49104B984709480B490F4BFD
S214082AF09847074807490E4B984705E0FB79013386
S214082B00FB71FB79072BDBD90837BD4680BD00BFB4
S214082B10F8060720200707209D2E080000800B4097
S214082B2071110800B511080035130800D52B0800E8
S214082B300D2F080080B582B000AF1C481C491D4BFD
S214082B4098471D481D4B984738603B68DBB2002BFA
S214082B5029D00023FB7123E0FB7917481946184B48
S214082B60984738603B6803F40003002B15D0FA79C1
S214082B700E4B1A600D4B3A689A600F480B49114B7A
S214082B809847114B01221A6008480B490F4B984783
S214082B90064807490E4B984705E0FB790133FB7159
S214082BA0FB79072BD8D90837BD4680BD40070720D4
S214082BB0600707209D2E080000400B407111080092
S214082BC0B511080035130800F4060720D52B0800B1
S214082BD00D2F080080B584B000AF786039607B6838
S214082BE09B69FB603A68564B9A4202D13B20554B8C
S214082BF098473A68544B9A4202D15520514B984709
S214082C00FB68B3F1013F02D13B204E4B9847FB6867
S214082C10B3F1113F02D155204A4B9847FB68B3F1F0
S214082C20FF3F02D15520474B9847FB68B3F1AB3FAF
S214082C3002D15520434B9847FB68B3F1113F14BFA8
S214082C4000230123DAB239683D4B994214BF0023AA
S214082C500123DBB21340DBB2002B04D03B20394BF8
S214082C6098473A4B9847FB68B3F1013F14BF0023D7
S214082C700123DAB23968344B994214BF0023012382
S214082C80DBB21340DBB2002B02D056202D4B984700
S214082C90FA682F4B9A4214BF00230123DAB2396828
S214082CA0294B994214BF00230123DBB21340DBB241
S214082CB0002B02D05720234B9847FB68B3F1FF3F01
S214082CC014BF00230123DAB239681F4B994214BF98
S214082CD000230123DBB21340DBB2002B02D05720BF
S214082CE0184B9847FB68B3F1AB3F14BF002301238A
S214082CF0DAB23968144B994214BF00230123DBB2B9
S214082D001340DBB2002B02D057200E4B9847FB68C7
S214082D10B3F1F03F14BF00230123DAB23968084B39
S214082D20994214BF00230123DBB21340DBB2002B09
S214082D3002D05620034B984700BF1037BD4680BDCB
S214082D4000400B403517080000800B40A92D0800EE
S214082D507856341280B483B000AF78607B6800225F
S214082D601A607B6800221A717B6800225A717B6899
S214082D7000229A717B680022DA717B6800229A60CA
S214082D807B680022DA607B6800221A617B68002272
S214082D905A617B6800229A617B680022DA610C37E8
S214082DA0BD465DF8047B704780B500AF3B202D4BD1
S214082DB098472D4801212D4B98472B202C4B984798
S214082DC029482C4B98472C482A4B98472B482C4B7D
S214082DD098472C4B01221A602A4B01221A71294B5C
S214082DE06FF06042DA60274B4FF4E0121A6122480F
S214082DF02449254B98472148214B98471F4B0122C9
S214082E001A601E4B03221A711C4B0F22DA711B4BD9
S214082E1000225A71194B0022DA60134817491A4BD8
S214082E209847164B4FF4E0121A61144B4FF00132D4
S214082E309A61124B4FF0FF32DA61104B08229A71F2
S214082E4009480E49114B98470B480221104B9847E2
S214082E50054802210F4B984700BF0F4B1B68002BF5
S214082E60FBD080BD3517080000400B405511080000
S214082E70C5290800B114080000800B404007072049
S214082E80552D0800F806072015120800F913080043
S214082E903911080089110800F406072080B483B0A9
S214082EA000AF786039607B681A683B681A607B6890
S214082EB01A793B681A717B685A793B685A717B683D
S214082EC09A793B689A717B68DA793B68DA717B682D
S214082ED09A683B689A607B68DA683B68DA607B6861
S214082EE01A693B681A617B685A693B685A617B684D
S214082EF09A693B689A617B68DA693B68DA6100BF61
S214082F000C37BD465DF8047B704700BF80B483B0BD
S214082F1000AF786039603B681A687B681A603B685F
S214082F201A797B681A713B685A797B685A713B68CC
S214082F309A797B689A713B68DA797B68DA713B68BC
S214082F409A687B689A603B68DA687B68DA603B68F0
S214082F501A697B681A613B685A697B685A613B68DC
S214082F609A697B689A613B68DA697B68DA6100BFB0
S214082F700C37BD465DF8047B704700BF80B582B04D
S214082F8000AF01237B6029483421294B98472748FE
S214082F903521284B98472548274B98472348274BE1
S214082FA0984727488F21224B984725489021214B40
S214082FB098472348204B98472148204B98472B2072
S214082FC0204B98472C201F4B98471F4B9847386034
S214082FD01E483968FA221E4B98470346002B21D014
S214082FE01C483968FA221A4B98470346002B19D012
S214082FF016484FF0FF31184B984716484FF0FF31E8
S214083000154B98472B20154B98472C20134B984761
S2140830100E48134B98470F48114B98477868114B42
S2140830209847786000BF0837BD4680BD80070720F0
S214083030B10E0800CD0E0800050F0800E90E0800BE
S21408304018070720211D0800892A080000400B40A1
S2140830507110080000800B405511080095290800DB
S214083060B11408006930080080B582B000AF7860F7
S2140830702448254B9847234B07221A60214B0322E6
S2140830801A71204B0522DA711E4B00225A711D4B0D
S2140830900022DA601D481B491D4B98471D481A4BED
S2140830A098471C4B00221A601A4B01221A71194BBA
S2140830B06FF06042DA60174B4FF420121A61164818
S2140830C01449134B984714480121144B98470D4848
S2140830D00D4B98470B4B06221A600A4B03221A71AF
S2140830E0084B1422DA71074B00225A71054B00224E
S2140830F0DA6006480349064B9847012318460837FE
S214083100BD4680BD40070720552D080000400B40EF
S21408311015120800F806072000800B403911080031
S21408312080B485B000AF78607B6803F00703FB6067
S2140831300C4BDB68BB60BA684FF6FF031340BB60F6
S214083140FB681A02BB68134343F0BF6343F40033BB
S214083150BB60044BBA68DA601437BD465DF8047B7A
S214083160704700BF00ED00E080B500AF024B9847FF
S214083170024B9847FEE700BF813108009508080013
S21408318080B500AF054B98470020054B9847054B80
S2140831909847054B9847054B984780BD590D08003A
S2140831A021310800C10D0800ED3108007D2F080008
S2140831B080B582B000AF78603960014B9847FEE76B
S2140831C04126080080B500AF0448054B98475520AF
S2140831D0044B98470148044B984780BD501A0E4048
S2140831E01D22080035170800F521080080B582B0B2
S2140831F000AF00237B600FE00A4B7A6853F8223052
S21408320018464FF06051084B984778680021074BDE
S21408321098477B6801337B607B68022BECD90837BC
S214083220BD4680BD5C350800951708003132080099
S21408323080B582B000AF786039607B68022B23D8EF
S2140832407B68002B06D13B68002B14BF00230123A4
S214083250DBB23B603B68002B0BD00D4B98470D4B01
S2140832607A6853F8223018460B4B98470B4B98470A
S2140832700AE0074B9847074B7A6853F822301846F7
S214083280074B9847054B98470837BD4680BD00BF93
S214083290C52508005C35080001170800092608003F
S2140832A0CD16080080B582B000AF1248124B98477A
S2140832B078603B20114B98477B6803F00103002B8E
S2140832C015D00F4B01221A7055200C4B9847094809
S2140832D04FF400410B4B984706484FF400310A4B11
S2140832E098470A4B1B6803481946094B98470837FE
S2140832F0BD4680BD301A0E40211E0800351708004E
S2140833009C070720A51D0800C91D0800A007072060
S214083310391E080070B50F4E0F4D761BB61007D035
S214083320043D0024013455F8043F9847A642F9D1D5
S2140833300A4E0B4D00F01CF9761BB61008D0043D5B
S2140833400024013455F8043F9847A642F9D170BDC9
S21408335070BD00BF7C3508007C3508008435080041
S2140833607C350800032A70B428D940EA01039B0775
S21408337013D005780C78A54224D1013A002305E03D
S21408338010F8015F11F8014FA5421BD1934203F1D3
S2140833900103F5D1002070BC70470C46034625682B
S2140833A01E682146AE42184604F1040403F10403DD
S2140833B004D1043A032A18462146F0D8002AD8D160
S2140833C01046E8E7281B70BC704700BF024B13B1D5
S2140833D0024800F005B8704700000000ED3308000A
S2140833E0014600200246034600F018B838B5094DD5
S2140833F0094C641BA41018BF05EB840505D0013CD6
S21408340055F8043D9847002CF9D1BDE8384000F03F
S214083410B9B800BF9035080094350800F0B5274CB9
S21408342085B026680746D6F84841002C40D065681F
S2140834301F2D1EDD224818B94FF0FF3005B0F0BD2D
S2140834404FF4C870039102920193AFF3008003997A
S2140834500446029A019B0028EED0D6F84851002070
S214083460256060600546C6F84841C4F88801C4F877
S2140834708C013FB96B1C00200235636044F82510A8
S21408348005B0F0BD0126AE4004EB8500C0F88820E4
S214083490D4F88821022F42EA0602C4F88821C0F828
S2140834A00831E7D1D4F88C311E43C4F88C61E1E7C3
S2140834B006F5A674C6F84841B9E700BF6C3508009B
S2140834C00000000000C20100C00000000008000064
S2140834D000000000000000000000000008030202D0
S2140834E0034B0902030302430A03030303460B04C0
S2140834F0030304480C03040404430D040404044DA5
S2140835000E04040504400F040505044310050505CC
S2140835100445110605050447120506060443130666
S2140835200606044414070606044615080606044755
S2140835301607070704441708080704461807080864
S2140835400443190808080444A5A5A5A5A5A5A5A586
S214083550A5A5A5A5A5A5A5A5A5A5A5A5560000004C
S2140835603B0000005500000043000000180007203C
S214083570F8B500BFF8BC08BC9E467047CD330800B7
S21408358019010800F8B500BFF8BC08BC9E4670478D
S208083590F50008002D
S21408359464000000640000000100000000093D000B
S2140835A4AAAAAAAAFFFFFFFF000000000403072038
S2140835B46C030720D4030720000000000000000066
S2140835C400000000000000000000000000000000EA
S2140835D40000000000000000000000006835080035
S2140835E400000000000000000000000000000000CA
S2140835F400000000000000000000000000000000BA
S21408360400000000000000000000000000000000A9
S2140836140000000000000000000000000000000099
S2140836240000000000000000000000000000000089
S2140836340000000000000000000000000000000079
S2140836440000000000000000000000000000000069
S21408365401000000000000000E33CDAB34126DE606
S214083664ECDE05000B00000000000000000000006F
S2140836740000000000000000000000000000000039
S2140836840000000000000000000000000000000029
S2140836940000000000000000000000000000000019
S2140836A40000000000000000000000000000000009
S80408223D94
