S01400004D61696E5F50726F6772616D2E7372656354
S21408000010260720C9150800C1150800C1150800E4
S214080010C1150800C1150800C11508000000000039
S2140800200000000000000000000000002D19080075
S214080030C115080000000000E91908002D1A08007C
S214080040C1150800C1150800C11508004D2B080089
S2140800506D2A0800C1150800C1150800C11508005A
S214080060C1150800C1150800000000006D10080042
S214080070851008009D100800B51008000000000054
S21408008000000000BD2B0800C1150800C1150800B7
S214080090C1150800C1150800C1150800C1150800DB
S2140800A0C115080000000000C1150800C1150800A9
S2140800B0C1150800C1150800C1150800C1150800BB
S2140800C0C1150800C1150800C1150800C1150800AB
S2140800D0C1150800C1150800C1150800C11508009B
S2140800E0C1150800C1150800C1150800B923080085
S2140800F02123080010B5054C237833B9044B13B1F7
S2140801000448AFF300800123237010BD380407208D
S21408011000000000E02F080008B5064B1BB1064893
S2140801200649AFF300800648036813B1054B03B1D0
S214080130984708BD00000000E02F08003C04072090
S214080140E02F08000000000080B582B000AF78609D
S2140801507B68072B2ED801A252F823F0B5010800B9
S2140801607D010800850108008D010800950108003A
S2140801709D010800A5010800AD01080000200F4BEE
S214080180984717E001200D4B984713E000200C4BCA
S21408019098470FE010200A4B98470BE02020084BA2
S2140801A0984707E00020074B984703E00120054BD7
S2140801B0984700BF0837BD4680BD00BF51110800EC
S2140801C0C11108006112080080B582B000AF7860DF
S2140801D07B68072B26D801A252F823F0FD010800F9
S2140801E001020800010208001302080013020800B2
S2140801F0130208001302080013020800012312E085
S2140802000B4B98470346002B0CBF00230123DBB299
S21408021009E0084B98470346002B0CBF0023012330
S214080220DBB200E0002318460837BD4680BD00BF95
S2140802308D110800CD12080080B483B000AF786036
S2140802407B68072B25D801A252F823F06D02080018
S21408025073020800790208007F020800830208007B
S214080260870208008B0208008F0208004FF4FA4342
S21408027010E04FF400430DE04FF400430AE0084B4B
S21408028008E0084B06E0084B04E0074B02E0064B84
S21408029000E0002318460C37BD465DF8047B70471F
S2140802A000093D0000127A00001BB70080B582B036
S2140802B000AF0346FB7100BFFB791846054B98470D
S2140802C0034683F00103DBB2002BF5D10837BD46A1
S2140802D080BD00BFC901080080B586B000AFF860D1
S2140802E07A603B600B46FB727B68002B07D13B6845
S2140802F0002B04D1FB684FF470021A6019E0FB7AF1
S21408030018460D4B984702467B68B2FBF3F37B61B1
S2140803107B693A6802FB03F37B613B68013B1A047E
S214080320064B13407A68D2B2134343F47C52FB68F8
S2140803301A601837BD4680BD390208000000FF075E
S21408034080B582B000AF786039603B68002B08D172
S214080350084B9847084B7A68126842F000529A622F
S21408036005E0054B7A68126842F48032DA6108378D
S214080370BD4680BDE912080000060E4080B582B072
S21408038000AF78607B68002B03D1054B984703467F
S21408039002E0044B9847034618460837BD4680BD1A
S2140803A0011308001D13080080B582B000AF03468D
S2140803B0FB71FB79033B042B08D8FB791846054BE1
S2140803C09847FB791846044B984700E000BF083763
S2140803D0BD4680BD49010800AD02080080B582B060
S2140803E000AF786000BF7868044B98470346002B38
S2140803F0F9D0002318460837BD4680BD7D0308009F
S21408040080B500AF0620044B984702461346DB002B
S2140804109B1A5B00184680BD3902080080B500AFFD
S214080420024B984703465B08184680BD010408003F
S21408043090B583B000AF104B9847034618460F4B4D
S214080440984706200E4B98473B1D18460621012262
S2140804500E230C4CA0473B1D184600210A4B984714
S21408046000200A4B98471020094B984700BF094BB5
S21408047098470C37BD4690BD1D040800F1170800C4
S214080480A9030800D902080041030800DD03080094
S214080490CD1008007116080080B500AF2E4B4FF43B
S2140804A000425A6001204FF000612C4B984700200C
S2140804B04FF00061294B984734204FF04051274BA6
S2140804C0984735204FF04051244B98472F204FF03F
S2140804D00061224B98472E204FF000611F4B98472B
S2140804E08F204FF040511D4B984790204FF04051B9
S2140804F01A4B984757204FF04051184B98475720AB
S214080500174B98473B204FF06051144B984755209F
S2140805104FF06051114B984756204FF060510F4BE3
S214080520984787200F490D4B984737200E490B4BA5
S21408053098470A204FF00061084B98470B204FF069
S2140805400061064B98478E204FF04051034B984762
S2140805508E20064B984780BD501A0E408D0E080018
S214080560C50D08007900002859000028F90D080074
S21408057080B483B000AF786039607B683A681A60E8
S2140805800C37BD465DF8047B704700BF80B483B067
S21408059000AF786039607B683A685A600C37BD46A9
S2140805A05DF8047B704700BF80B582B000AF786006
S2140805B07B685B681846024B98470837BD4680BD7F
S2140805C0C50D080080B582B000AF78607B681B68F0
S2140805D01846024B98470837BD4680BDF90D0800F7
S2140805E080B58AB000AFF860B9607A607B6846F27A
S2140805F0A81202FB03F2BB6813445A1E7B6846F235
S214080600A81101FB03F3B2FBF3F3802B01D90023F7
S21408061085E0BB685A087B684FF4FA5101FB03F380
S2140806209A4201D200237AE0082387F827304FF051
S214080630FF333B620823FB772BE0FB7F7A6802FBDD
S21408064003F34FF47A7202FB03F3BA68B2FBF3F3D0
S214080650802B1BD8FB7F7A6802FB03F34FF47A7271
S21408066002FB03F2BB68B3FBF2F102FB01F29B1A32
S214080670BB61BA693B6A9A4208D2BB693B62FB7F98
S21408068087F827303B6A002B00D105E0FB7F013353
S214080690FB77FB7F192BD0D997F827307A6802FBAF
S2140806A003F34FF47A7202FB03F3BA68B2FBF3F370
S2140806B0FB75FB7D012B01D8002330E097F8273027
S2140806C0A3F1080213465B0013445B00164A134462
S2140806D03B61F868154B98473B69DB78013B03F0AC
S2140806E007023B699B78013B1B0103F070031A4322
S2140806F03B695B78013B1B0203F4E0631A433B69E2
S2140807001B79013B1B0303F440531A43FB7D013B53
S2140807101B0403F4FE031A43FB685A6101231846B8
S2140807202837BD4680BD00BF282F0800D907080017
S21408073080B586B000AFF860B9607A60F868B968C6
S2140807407A68174B984778617B69002B01D100239C
S21408075021E0F868134B9847F868134B984700232E
S2140807607B6100233B6106E0F868104B9847786188
S2140807703B6901333B617B6903F40013002B03D10B
S2140807803A690B4B9A42EFD93A690A4B9A4201D119
S214080790002300E0012318461837BD4680BD00BF79
S2140807A0E1050800710B0800B907080031080800C1
S2140807B09F860100A086010080B483B000AF7860F1
S2140807C07B681B6843F001027B681A600C37BD46DD
S2140807D05DF8047B704700BF80B483B000AF7860D4
S2140807E07B681B6823F001027B681A600C37BD46DD
S2140807F05DF8047B704700BF80B483B000AF7860B4
S21408080039607B683A685A600C37BD465DF8047BE9
S214080810704700BF80B483B000AF786039607B68EB
S2140808203A689A600C37BD465DF8047B704700BF8F
S21408083080B483B000AF78607B681B6918460C37B5
S214080840BD465DF8047B704780B485B000AF78601D
S2140808500B46FB707B685B6A23F0FF03FB60FA7845
S214080860FB681A437B685A621437BD465DF8047BFA
S214080870704700BF80B483B000AF78600B46FB704B
S214080880FB787A685B01134403F504731B68184603
S2140808900C37BD465DF8047B704700BF80B485B052
S2140808A000AF786039603B681B68FB73FB7B3A686F
S2140808B09279120402F4702242F4000279685B010D
S2140808C00B4403F506735A601437BD465DF8047B7F
S2140808D0704700BF80B485B000AF786039603B6869
S2140808E01B68FB733B681B79002B2ED1FB7B7A6851
S2140808F010335B01134400221A60FB7B7A681033BE
S2140809005B01134400225A60FB7B7A685B01134440
S21408091003F5027300221A60FB7B7A685B011344B6
S21408092003F5047300225A60FB7B7A685B01134464
S21408093003F5067300221A60FB7B7A685B01134492
S21408094003F5067300225A604EE0FB7BFA7B796853
S214080950103252010A44126822F470213A68D27999
S21408096012040A43796810335B010B441A603B682B
S2140809705B79002B15D0FB7B3A68D26842F00052B0
S214080980796810335B010B445A60FB7B3A6812693E
S21408099042F0005279685B010B4403F502731A6053
S2140809A010E0FB7B3A68D268796810335B010B4429
S2140809B05A60FB7B3A68126979685B010B4403F559
S2140809C002731A60FB7BFA7B7968103252010A447C
S2140809D0126822F0E0613A68127912060A437968CA
S2140809E010335B010B441A601437BD465DF8047B70
S2140809F0704700BF80B586B000AF786039600023C6
S214080A007B613B681B68FB743B689B68FB60FB6804
S214080A1003F40003002B06D0FB6803F08073002B5A
S214080A2001D002237B61FB7C7A685B01134403F5E3
S214080A3002735B6823F060423B685A61FB6803F404
S214080A4070231B0CDAB23B689A71FB7C7A685B01F0
S214080A50134403F504735A683B689A613B689B79AC
S214080A60042B08D9FB7C7A685B01134403F50673EC
S214080A701A683B68DA61FB7C7A685B01134403F505
S214080A8004731A683B689A603B689B68FB60FB685F
S214080A9003F08073002B03D07B6943F004037B616B
S214080AA078683968034B98477B6918461837BD46F7
S214080AB080BD00BF9D08080080B584B000AF786090
S214080AC039603B681B68FB73FB7B78681946274BC5
S214080AD0984702463B689A603B689B68BB60BB6861
S214080AE003F40003002B01D101233BE03B685B794C
S214080AF0002B0BD0FB7B3A68126942F000527968EB
S214080B005B010B4403F502731A6008E0FB7B3A6846
S214080B10126979685B010B4403F502731A60FB7B64
S214080B203A68926979685B010B4403F504735A6066
S214080B303B689B79042B08D9FB7B3A68D2697968AD
S214080B405B010B4403F506731A60FB7B3A689279DF
S214080B50120402F4702279685B010B4403F50673ED
S214080B605A60002318461037BD4680BD7508080031
S214080B7080B58CB000AF786000233B74002387F8FC
S214080B802F300DE097F82F30FB6007F10C037868DC
S214080B901946074B984797F82F30013387F82F30B8
S214080BA097F82F30072BEDD93037BD4680BD00BFEC
S214080BB0D508080080B485B000AFF860B9607A60E0
S214080BC07B68002B03D0FB68BA685A6602E0FB68AD
S214080BD0BA681A661437BD465DF8047B704700BFCE
S214080BE080B487B000AFF860B9607A60FB687A684E
S214080BF05A64BB68B3F1805F1FD0B3F1805F05D835
S214080C00002B27D0B3F1006F0AD01FE0B3F1405F86
S214080C1020D0B3F1605F1DD0B3F1205F1AD015E085
S214080C20FB681B6F7B61FB681A6F7B68D9437B691F
S214080C300B401A40FB681A6708E0FB681B6F7B616D
S214080C407A687B691A43FB681A6700BFFB687A688C
S214080C505A6000E000BF1C37BD465DF8047B70474D
S214080C6080B584B000AFF860B9607A60F868B96893
S214080C70184B98477B6803F00103F868B9681A466A
S214080C80154B98477B6803F00A03002B03D0FB68D4
S214080C90BA681A6202E0FB68BA685A627B6803F0B0
S214080CA00203002B04D0FB68BA68C3F8802008E06B
S214080CB07B6803F00803002B03D0FB68BA68C3F808
S214080CC08020FB68BA685A61FB68BA681A601037F1
S214080CD0BD4680BD410D0800B50B080080B584B040
S214080CE000AFF860B9607A603B60F868B968124B84
S214080CF09847F868B968BA69104B98473B68002B5C
S214080D0003D0FB68BA681A6502E0FB68BA685A65D9
S214080D107B68002B03D0FB68BA681A6302E0FB689E
S214080D20BA685A63FB68BA681A61FB68BA681A60D8
S214080D301037BD4680BD00BF410D0800B50B080042
S214080D4080B483B000AF786039607B683A685A64CC
S214080D500C37BD465DF8047B704700BF80B483B08F
S214080D6000AF78607B68DB6C18460C37BD465DF8CC
S214080D70047B704780B483B000AF78607B689B6C58
S214080D8018460C37BD465DF8047B704780B485B0BE
S214080D9000AF78607B685B0903F5001303F20773FE
S214080DA05B02FB60FB68DA6B7B6803F01F0322FAC2
S214080DB003F303F0010318461437BD465DF8047BB9
S214080DC0704700BF80B485B000AF78607B685B0969
S214080DD003F5001303F207735B02FB607B6803F0FE
S214080DE01F03012202FA03F31A46FB681A63143734
S214080DF0BD465DF8047B704780B485B000AF786068
S214080E007B685B0903F5001303F207735B02FB605C
S214080E107B6803F01F03012202FA03F31A46FB68F5
S214080E205A631437BD465DF8047B704780B485B0B6
S214080E3000AF78607B685B0903F5001303F207735D
S214080E405B02FB60FB689A6B7B6803F01F0301215B
S214080E5001FA03F31340002B09D07B6803F01F0345
S214080E60012202FA03F31A46FB685A6308E07B6815
S214080E7003F01F03012202FA03F31A46FB681A63FB
S214080E801437BD465DF8047B704700BF90B587B041
S214080E9002AF786039607B685B0903F5001303F2DC
S214080EA007735B02FB603B6803F0F043B3F1205F17
S214080EB048D0B3F1205F06D8B3F1006F0AD0B3F17B
S214080EC0805F23D070E0B3F1405F47D0B3F1605F36
S214080ED044D069E07B6803F01F03012202FA03F39B
S214080EE0F8684FF000611A46334B98477B6803F062
S214080EF01F03012202FA03F31A463B6803F00103B4
S214080F00F86811461A462D4B98474FE07B6803F061
S214080F101F03012202FA03F3F8684FF080511A46BD
S214080F20254B98477B6803F01F03012202FA03F358
S214080F301A463B6803F00103F86811461A461F4B29
S214080F40984733E07B6803F01F03012202FA03F395
S214080F50F86819463A681A4B984727E07B6803F002
S214080F601F03012202FA03F319463B6803F0605395
S214080F70B3F1605F14BF00230123DBB21A463B6857
S214080F8003F00403002B0CBF00230123DBB23868F0
S214080F9000F0010000280CBF00200120C0B200901D
S214080FA0F868084CA04701E0002300E00123184633
S214080FB01437BD4690BD00BFE10B0800B50B08000E
S214080FC0610C0800DD0C080080B584B000AF7860BE
S214080FD039607868224B9847F8607868214B9847BC
S214080FE00346FA681340FB60FB68002B35D00023E5
S214080FF0BB602FE01C4ABB681B0113441A683B6899
S2140810009A4224D1184ABB681B0113445A68FB68E5
S2140810101340002B1BD0144ABB681B01134408332B
S2140810205B681149BA6812010A4411680E48BA6822
S2140810301201024452680846114698470A4ABB6895
S2140810401B0113445B68DB43FA681340FB60BB680C
S2140810500133BB60FB68002BCCD11037BD4680BD82
S2140810605D0D0800750D08005404072080B500AF14
S21408107002480B21024B984780BD00BF000E0E4069
S214081080C90F080080B500AF02480C21024B9847EC
S21408109080BD00BF00100E40C90F080080B500AF25
S2140810A002480D21024B984780BD00BF00120E4033
S2140810B0C90F080080B500AF02480E21024B9847BA
S2140810C080BD00BF00140E40C90F080080B485B06C
S2140810D000AF78601D4B1D4A126B22F070017A68CB
S2140810E00A431A634FF40063FB6007E0FB68002BB3
S2140810F001D1012323E0FB68013BFB60134B9B6E89
S21408110003F00803002BF1D0104B104A126B22F0A4
S214081110030242F002021A634FF40063FB6007E022
S214081120FB68002B01D1012309E0FB68013BFB604B
S214081130064B9B6E03F00803002BF1D000231846DD
S2140811401437BD465DF8047B704700BF00060E40A6
S21408115080B483B000AF78607B68012B07D10A4A59
S214081160094B9B6843F0254343F480139360064A73
S214081170054B1B6843F0254343F0080313600C3700
S214081180BD465DF8047B7047101A0E4080B400AF69
S214081190094B5B6903F08003002B07D0074B9B6E57
S2140811A003F08003002B01D0012300E0002318463B
S2140811B0BD465DF8047B7047101A0E4000060E40C8
S2140811C080B485B000AF78600023FB60214B1B6AB3
S2140811D003F00103002B0ED01E4A1E4B1B6A23F495
S2140811E05C1323F0780379680B4343F45C1343F0ED
S2140811F0080313620BE00123FB60164A154B196AB5
S214081200154B0B4079681943144B0B43136200BF08
S214081210104B9B6E03F40033002BF9D00D4A0D4B90
S2140812201B6A23F09B7323F4803343F45C13136226
S214081230FB68002B09D0074A064B1B6A23F45C138D
S21408124023F0010343F45C1313621437BD465DF8BC
S214081250047B704700060E4086C0C8FF093F37006B
S21408126080B483B000AF78607B68002B08D0124942
S214081270114B1B6A114A1A40114B13430B6216E0B6
S2140812800D490D4B1B6A0F4A1A400F4B13430B624E
S21408129000BF094B9B6E03F00103002BF9D0064AEA
S2140812A0054B1B6A43F09B7343F4803313620C3779
S2140812B0BD465DF8047B704700060E40FCFFC8FE7E
S2140812C002003701FCC0C8FF013F370080B400AFFA
S2140812D0044B9B6E03F480331846BD465DF8047BCA
S2140812E0704700BF00060E4080B400AF034B4FF0B7
S2140812F000529A62BD465DF8047B704700060E40B1
S21408130080B400AF044B9B6E03F002031846BD463C
S2140813105DF8047B704700BF00060E4080B400AF3F
S214081320044B9B6E03F040031846BD465DF8047BED
S214081330704700BF00060E4080B483B000AF7860E8
S2140813407B682C2B01D901232FE07B681F2B13D831
S214081350194B9A697B68012101FA03F31A407B68E6
S214081360012101FA03F39A421ED0134B7A68012131
S21408137001FA02F21A6117E07B68203B7B600E4B8D
S214081380D3F808217B68012101FA03F31A407B6829
S214081390012101FA03F39A4206D0074B7A68012125
S2140813A001FA02F2C3F80021002318460C37BD469E
S2140813B05DF8047B704700BF00060E4080B483B01B
S2140813C000AF78600B467B807B8843F480227B687E
S2140813D01A60002318460C37BD465DF8047B704734
S2140813E080B485B000AF786039607B681B68FB60A6
S2140813F0FA683B681343FB607B68FA681A60143720
S214081400BD465DF8047B704780B485B000AF786051
S21408141039600023FB607B681B68FB603B68DB4326
S214081420FA681340FB607B68FA681A601437BD4692
S2140814305DF8047B704700BF80B483B000AF786067
S2140814407B68DB6818460C37BD465DF8047B70473A
S21408145080B584B000AF786039603B68002B01D156
S214081460012316E07B681B6803F48033FB600B4897
S2140814704FF480310A4B98473B685A1E7B685A607F
S214081480FB68002B04D005484FF48031054B98477D
S214081490002318461037BD4680BD00BF301A0E40E0
S2140814A009140800E113080080B483B000AF786020
S2140814B039607B683A68DA600C37BD465DF8047BAD
S2140814C0704700BF80B483B000AF78607B681B6944
S2140814D018460C37BD465DF8047B704780B483B069
S2140814E000AF78607B685B6918460C37BD465DF8C8
S2140814F0047B704780B485B000AF786039604FF4DD
S2140815007A73FB6006E0FB685A1EFA60002B01D16E
S21408151001230BE07B685B6903F00203002BF2D023
S2140815203B68C3F308027B68DA6100231846143761
S214081530BD465DF8047B704780B485B000AF786020
S21408154039604FF47A73FB6006E0FB685A1EFA604F
S214081550002B01D101230CE07B685B6903F00103D3
S214081560002BF2D07B689B69C3F308023B681A60BD
S214081570002318461437BD465DF8047B704700BF45
S21408158080B483B000AF78607A68054B9A4202D17F
S2140815907B68044A1A600C37BD465DF8047B7047C2
S2140815A0501A0E40010000A580B483B000AF7860E2
S2140815B07B689B6818460C37BD465DF8047B704709
S2140815C080B400AFFEE700BF80B582B000AF1E4B08
S2140815D07B601E4B3B607A683B689A420CD007E0FB
S2140815E03B681A1D3A607A68111D796012681A609D
S2140815F03A68174B9A42F3D3164B3B6004E03B68B5
S2140816001A1D3A6000221A603A68134B9A42F6D3BB
S214081610124B7B60124A7B6823F0604323F07F03FB
S21408162093607B68B3F1005F09D37A680D4B9A42E2
S21408163005D80B4B0A4A926842F000529A600A4B49
S21408164098470A4B9847FEE7E02F08000000072057
S21408165038040720380407200C0607200000080076
S21408166000ED00E0FFFF0F208D2C0800ED29080094
S21408167080B400AF564B1B6B03F00303032B00F23A
S2140816808A8001A151F823F099160800B9160800B7
S21408169009170800091708004E4B5B6903F080031A
S2140816A0002B04D04C4B4FF400421A6073E04A4BB0
S2140816B04FF4FA421A606EE0454B1B6A03F08073DB
S2140816C0002B03D0444B454A1A601CE0424B444A60
S2140816D01A603F4B1B6A03F07003102B04D0202BB4
S2140816E008D0002B0ED00EE03B4B1B685A003A4B36
S2140816F01A6008E0384B1A6813465B001A44364BE3
S2140817001A6000E000BF46E0314B1B6A03F08073A6
S214081710002B03D0304B314A1A601CE02E4B304A5F
S2140817201A602B4B1B6A03F07003102B04D0202B77
S21408173008D0002B0ED00EE0274B1B685A00264B0D
S2140817401A6008E0244B1A6813465B001A44224BBA
S2140817501A6000E000BF1E4B1B6B03F00303022B4E
S21408176015D11B4B9A6A1F4B13401B0C01331A4AA0
S214081770126802FB03F2184B1A60174B1A68144BD0
S2140817809B6ADBB2B2FBF3F2134B1A6002E0124B11
S214081790154A1A6000BF0E4B1B6B03F07003702BC4
S2140817A008D10D4B1A68114BA3FB02135A080A4BB3
S2140817B01A6009E0084B1A68054B1B6B03F07003A8
S2140817C01B09DA40044B1A60BD465DF8047B704777
S2140817D000060E40101A0E4000000720001BB70037
S2140817E000093D000000FF07001C4E0EABAAAAAA7F
S2140817F080B483B000AF78607A681F4B9A4206D8E8
S2140818001E4B00221A601E4B00221A602EE07A68D1
S2140818101C4B9A4208D8194B4FF480721A60184B22
S2140818204FF480721A6021E07A68174B9A4208D8FB
S214081830124B4FF400721A60114B4FF400721A6084
S21408184014E07A68114B9A4208D80C4B4FF4407251
S2140818501A600B4B4FF440721A6007E0074B4FF4C0
S21408186080621A60064B4FF480621A600C37BD46D9
S2140818705DF8047B704700BF9F525701000A0E4070
S214081880000C0E407FCC06023FB728037F2FA60425
S21408189080B485B000AF786039607B685B68FB60B1
S2140818A03B68FA685A60FB689A683B689A60FB6807
S2140818B09B683A685A60FB683A689A603B687A6838
S2140818C01A617B681B685A1C7B681A601437BD4609
S2140818D05DF8047B704700BF80B485B000AF7860C1
S2140818E07B681B69FB607B685B687A6892689A60AD
S2140818F07B689B687A6852685A60FB685A687B6897
S2140819009A4203D17B689A68FB685A607B68002213
S2140819101A61FB681B685A1EFB681A60FB681B681E
S21408192018461437BD465DF8047B7047074B1968A0
S2140819300868B0E8F00F80F30988BFF36F8F4FF0A0
S214081940000080F311884EF00D0E7047CC04072077
S21408195080B500AF0C4B98470C4B1B685A1C0B4BBA
S2140819601A60BFF34F8FBFF36F8F084B1B68012BAE
S21408197008D1074B1B6803F01F03002B02D0024B4D
S2140819809847FEE780BD00BFCD1908000400072071
S21408199004ED00E080B500AF094B1B68002B02D1B0
S2140819A0084B9847FEE7064B1B685A1E044B1A60FE
S2140819B0034B1B68002B02D10020034B984780BDC1
S2140819C004000720CD190800E1190800EFF311807C
S2140819D04FF0A00181F3118870470023184600BF16
S2140819E080F31188704700BFEFF30980BFF36F8F4D
S2140819F00D4B1A6820E9F00F10602DE908404FF0EB
S214081A00A00080F3118800F093FA4FF0000080F3EE
S214081A101188BDE8084019680868B0E8F00F80F338
S214081A200988BFF36F8F7047CC04072080B500AFD6
S214081A30074B9847074B98470346002B03D0064B9F
S214081A404FF080521A600020044B984780BD00BFB4
S214081A50CD190800B51D080004ED00E0E1190800DE
S214081A6080B582B000AFEFF305837B607B680F2BF1
S214081A700CD90D4A7B6813441B78FB700B4B1B78FC
S214081A80FA789A4202D20A4B9847FEE7094B1B6837
S214081A9003F4E062084B1B689A4202D9044B984745
S214081AA0FEE70837BD4680BDF0E300E0C404072023
S214081AB0CD1908000CED00E0C804072080B588B0F2
S214081AC000AFF860B9607A603B60FB68BB61BB69D1
S214081AD0002B02D1334B9847FEE7BB68002B03D197
S214081AE0BB691B6C002B01D1012300E00023002BEF
S214081AF002D12C4B9847FEE73B68022B03D1BB6903
S214081B00DB6B012B01D1012300E00023002B02D15F
S214081B10244B9847FEE7244B9847224B9847786112
S214081B20BB699A6BBB69DB6B9A4202D33B68022B94
S214081B302DD1B869B9683A681C4B98470346002BFC
S214081B4005D07B68002B02D07B6801221A60BB692F
S214081B509B6CB3F1FF3F12D1BB695B6A002B13D0B5
S214081B60BB6924331846124B98470346002B0BD004
S214081B707B68002B08D07B6801221A6004E0BB69EA
S214081B809B6C5A1CBB699A640123FB6101E0002325
S214081B90FB617869074B9847FB6918462037BD46AE
S214081BA080BD00BFCD190800611A0800811C080016
S214081BB02D200800E119080080B588B000AFF8604D
S214081BC0B9607A60FB68BB61BB69002B02D1274B02
S214081BD09847FEE7BB68002B03D1BB691B6C002B3C
S214081BE001D1012300E00023002B02D11F4B9847A8
S214081BF0FEE71F4B98471D4B98477861BB699B6B60
S214081C00002B28D0B869B9681A4B9847BB699B6BF4
S214081C105A1EBB699A63BB695B6CB3F1FF3F12D16E
S214081C20BB691B69002B13D0BB6910331846124BCF
S214081C3098470346002B0BD07B68002B08D07B68A0
S214081C4001221A6004E0BB695B6C5A1CBB695A64C3
S214081C500123FB6101E00023FB617869074B984785
S214081C60FB6918462037BD4680BD00BFCD19080061
S214081C70611A0800651D08002D200800E1190800F3
S214081C8080B586B000AFF860B9607A6000237B61E3
S214081C90FB681B6C002B0DD1FB681B68002B52D110
S214081CA0FB685B6818462D4B98477861FB680022EE
S214081CB05A6048E07B68002B1AD1FB689A68FB6874
S214081CC01B6C1046B9681A46254B9847FB689A68F5
S214081CD0FB681B6C1A44FB689A60FB689A68FB688A
S214081CE05B689A422FD3FB681A68FB689A602AE0FA
S214081CF0FB68DA68FB681B6C1046B9681A46184B0E
S214081D009847FB68DA68FB681B6C5B421A44FB68FA
S214081D10DA60FB68DA68FB681B689A4207D2FB68D9
S214081D205A68FB681B6C5B421A44FB68DA607B687F
S214081D30022B08D1FB689B6B002B04D0FB689B6BBF
S214081D405A1EFB689A63FB689B6B5A1CFB689A636F
S214081D507B6918461837BD4680BD00BF3521080088
S214081D60452D080080B582B000AF786039607B6882
S214081D701B6C002B19D07B68DA687B681B6C1A44CE
S214081D807B68DA607B68DA687B685B689A4203D3AC
S214081D907B681A687B68DA607B68DA687B681B6C25
S214081DA0386811461A46024B98470837BD4680BD24
S214081DB0452D080080B586B000AF00237B614D4BEB
S214081DC01B68002B40F086804B4B1B685A1C4A4BFE
S214081DD01A60494B1B683B613B69002B18D1474B7F
S214081DE01B681B68002B02D0454B9847FEE7434B01
S214081DF01B68FB60434B1A68404B1A60414BFA68F5
S214081E001A60414B1B685A1C3F4B1A603F4B984759
S214081E103F4B1B683A699A424DD3384B1B681B6880
S214081E20002B01D1012300E00023002B04D0384BFF
S214081E304FF0FF321A603EE0304B1B68DB68DB6809
S214081E40BB60BB685B687B603A697B689A4203D272
S214081E502F4B7A681A602EE0BB68043318462D4B61
S214081E609847BB689B6A002B04D0BB681833184693
S214081E70284B9847BB68DB6A01229A40264B1B68AA
S214081E801A43254B1A60BB68DA6A13469B0013444C
S214081E909B00224A1A44BB68043310461946204B56
S214081EA09847BB68DA6A1F4B1B68DB6A9A4201D3FD
S214081EB001237B61B1E71B4B1B68DA6A1749134697
S214081EC09B0013449B000B441B68012B07D9012376
S214081ED07B6104E0144B1B685A1C134B1A60134BA7
S214081EE01B68002B01D001237B617B6918461837D5
S214081EF0BD4680BD64050720500507203405072029
S214081F00CD1908003805072060050720ED200800D1
S214081F1008000720D918080054050720D004072011
S214081F2091180800CC040720580507205C050720F0
S214081F3080B584B000AF344B1B68002B03D0334BFE
S214081F4001221A605CE0314B00221A60304B1B6895
S214081F501A682F4B1B681B6B9A4208D82C4B1A68BA
S214081F602B4B1B683433104619462A4B9847284B88
S214081F701B681B6B184628491422284B98470346AB
S214081F80002B08D0224B1A68214B1B6834331046A6
S214081F901946204B9847224B1B687B607B68B3FA30
S214081FA083F3FB70FB78C3F11F03FB601D49FA68D7
S214081FB013469B0013449B000B441B68002B02D15E
S214081FC0194B9847FEE7FA6813469B0013449B0094
S214081FD0144A1344BB60BB685B685A68BB685A609F
S214081FE0BB685A68BB6808339A4204D1BB685B680A
S214081FF05A68BB685A60BB685B68DA68044B1A6044
S2140820001037BD4680BD00BF640507205C05072065
S214082010CC040720592A0800942F0800DD2C080055
S21408202054050720D0040720CD19080080B584B0D1
S21408203000AF78607B68DB68DB68BB60BB68002B3A
S21408204002D1214B9847FEE7BB68183318461F4B4A
S21408205098471F4B1B68002B1CD1BB6804331846D7
S2140820601A4B9847BB68DB6A01229A40194B1B68D3
S2140820701A43184B1A60BB68DA6A13469B00134467
S2140820809B00154A1A44BB68043310461946134B7E
S214082090984705E0BB681833114819460F4B984710
S2140820A0BB68DA6A0F4B1B68DB6A9A4205D90123BC
S2140820B0FB600D4B01221A6001E00023FB60FB6801
S2140820C018461037BD4680BDCD190800D918080037
S2140820D06405072054050720D00407209118080037
S2140820E03C050720CC0407205C05072080B483B095
S2140820F000AF0E4B1B681B68002B01D1012300E0C4
S2140821000023002B04D00A4B4FF0FF321A6008E079
S214082110064B1B68DB68DB687B607B685A68044B89
S2140821201A600C37BD465DF8047B704734050720F7
S2140821300800072080B584B000AF78607B68BB6075
S2140821400023FB607B68002B56D0BB685B6C002BBB
S21408215002D12C4B9847FEE7BB685B6C5A1EBB68DF
S2140821605A64BB68DA6ABB681B6C9A4244D0BB6880
S2140821705B6C002B40D1BB6804331846224B98474B
S2140821800346002B15D1BB68DA6A204913469B0024
S21408219013449B000B441B68002B0AD1BB68DB6A00
S2140821A0012202FA03F3DA43194B1B681A40184B4C
S2140821B01A60BB681A6CBB68DA62BB68DB6AC3F174
S2140821C00502BB689A61BB68DB6A01229A40104B1D
S2140821D01B681A430E4B1A60BB68DA6A13469B00E4
S2140821E013449B00094A1A44BB6804331046194630
S2140821F0084B98470123FB60FB6818461037BD4616
S21408220080BD00BFCD190800D9180800D0040720E3
S214082210540507209118080080B483B000AF034621
S214082220FB71084B97F907205209F97901F01F014D
S214082230012000FA01F143F822100C37BD465DF87C
S214082240047B704700E100E080B483B000AF03462B
S214082250FB71094B97F907205209F97901F01F011C
S214082260012000FA01F1203243F822100C37BD464F
S2140822705DF8047B704700BF00E100E080B483B0DF
S21408228000AF78607B68072B25D801A252F823F0A8
S214082290B1220800B7220800BD220800C3220800A1
S2140822A0C7220800CB220800CF220800D322080045
S2140822B04FF4FA4310E04FF400430DE04FF40043A8
S2140822C00AE0084B08E0084B06E0084B04E0074B1A
S2140822D002E0064B00E0002318460C37BD465DF8C2
S2140822E0047B704700093D0000127A00001BB70007
S2140822F080B500AF0620044B984702461346DB001D
S2140823009B1A5B00184680BD7D22080080B500AF8A
S214082310024B984703465B08184680BDF122080022
S21408232080B582B000AF1B481B491C4B98471C4819
S2140823301C4B984738603B68DBB2002B26D000233E
S214082340FB7120E0FB7916481946174B984738600A
S2140823503B6803F40003002B12D0FA790D4B1A6081
S2140823600C4B3A689A600E480A49104B9847094839
S2140823700B490F4B9847074807490E4B984705E007
S214082380FB790133FB71FB79072BDBD90837BD4690
S21408239080BD00BF740507209C050720212708007C
S2140823A000800B403108080075080800F509080089
S2140823B0592408009127080080B582B000AF1C4851
S2140823C01C491D4B98471D481D4B984738603B686D
S2140823D0DBB2002B29D00023FB7123E0FB791748DA
S2140823E01946184B984738603B6803F40003002BDF
S2140823F015D0FA790E4B1A600D4B3A689A600F485A
S2140824000B49114B9847114B01221A6008480B4993
S2140824100F4B9847064807490E4B984705E0FB7947
S2140824200133FB71FB79072BD8D90837BD4680BD29
S214082430BC050720DC0507202127080000400B40C4
S2140824403108080075080800F5090800680507201F
S214082450592408009127080080B584B000AF78603A
S21408246039607B689B69FB603A68564B9A4202D192
S2140824703B20554B98473A68544B9A4202D1552010
S214082480514B9847FB68B3F1013F02D13B204E4BB6
S2140824909847FB68B3F1113F02D155204A4B98473D
S2140824A0FB68B3F1FF3F02D15520474B9847FB68BE
S2140824B0B3F1AB3F02D15520434B9847FB68B3F1C5
S2140824C0113F14BF00230123DAB239683D4B994205
S2140824D014BF00230123DBB21340DBB2002B04D069
S2140824E03B20394B98473A4B9847FB68B3F1013F76
S2140824F014BF00230123DAB23968344B994214BF5B
S21408250000230123DBB21340DBB2002B02D0562097
S2140825102D4B9847FA682F4B9A4214BF0023012385
S214082520DAB23968294B994214BF00230123DBB27B
S2140825301340DBB2002B02D05720234B9847FB688A
S214082540B3F1FF3F14BF00230123DAB239681F4BEB
S214082550994214BF00230123DBB21340DBB2002BE1
S21408256002D05720184B9847FB68B3F1AB3F14BF0F
S21408257000230123DAB23968144B994214BF0023AA
S2140825800123DBB21340DBB2002B02D057200E4BE0
S2140825909847FB68B3F1F03F14BF00230123DAB273
S2140825A03968084B994214BF00230123DBB2134055
S2140825B0DBB2002B02D05620034B984700BF1037DB
S2140825C0BD4680BD00400B402D0E080000800B4025
S2140825D02D2608007856341280B483B000AF786091
S2140825E07B6800221A607B6800221A717B680022CA
S2140825F05A717B6800229A717B680022DA717B68C0
S21408260000229A607B680022DA607B6800221A61E2
S2140826107B6800225A617B6800229A617B680022E8
S214082620DA610C37BD465DF8047B704780B500AFAD
S2140826303B202D4B98472D4801212D4B98472B20A2
S2140826402C4B984729482C4B98472C482A4B984798
S2140826502B482C4B98472C4B01221A602A4B0122F8
S2140826601A71294B6FF06042DA60274B4FF4E0127C
S2140826701A6122482449254B98472148214B9847F8
S2140826801F4B01221A601E4B03221A711C4B0F2285
S214082690DA711B4B00225A71194B0022DA60134874
S2140826A017491A4B9847164B4FF4E0121A61144B09
S2140826B04FF001329A61124B4FF0FF32DA61104B3D
S2140826C008229A7109480E49114B98470B4802216F
S2140826D0104B9847054802210F4B984700BF0F4BF1
S2140826E01B68002BFBD080BD2D0E080000400B4059
S2140826F01508080049220800710B080000800B40E6
S214082700BC050720D925080074050720D508080049
S214082710B90A0800F90708004908080068050720EC
S21408272080B483B000AF786039607B681A683B680D
S2140827301A607B681A793B681A717B685A793B6815
S2140827405A717B689A793B689A717B68DA793B6834
S214082750DA717B689A683B689A607B68DA683B68D7
S214082760DA607B681A693B681A617B685A693B6855
S2140827705A617B689A693B689A617B68DA693B6844
S214082780DA6100BF0C37BD465DF8047B704700BFB2
S21408279080B483B000AF786039603B681A687B689D
S2140827A01A603B681A797B681A713B685A797B68A5
S2140827B05A713B689A797B689A713B68DA797B68C4
S2140827C0DA713B689A687B689A603B68DA687B6867
S2140827D0DA603B681A697B681A613B685A697B68E5
S2140827E05A613B689A697B689A613B68DA697B68D4
S2140827F0DA6100BF0C37BD465DF8047B704700BF42
S21408280080B582B000AF01237B6029483421294B6C
S214082810984727483521284B98472548274B9847F7
S2140828202348274B984727488F21224B9847254807
S2140828309021214B98472348204B98472148204B06
S21408284098472B20204B98472C201F4B98471F4B08
S214082850984738601E483968FA221E4B9847034640
S214082860002B21D01C483968FA221A4B9847034691
S214082870002B19D016484FF0FF31184B98471648CA
S2140828804FF0FF31154B98472B20154B98472C20B7
S214082890134B98470E48134B98470F48114B9847C9
S2140828A07868114B9847786000BF0837BD4680BDEA
S2140828B0FC050720710508008D050800C5050800F9
S2140828C0A905080094050720391308000D230800F9
S2140828D000400B403107080000800B401508080030
S2140828E019220800710B0800ED28080080B582B090
S2140828F000AF78602448254B9847234B07221A6078
S214082900214B03221A71204B0522DA711E4B002236
S2140829105A711D4B0022DA601D481B491D4B98470B
S2140829201D481A4B98471C4B00221A601A4B012266
S2140829301A71194B6FF06042DA60174B4FF4201289
S2140829401A6116481449134B984714480121144B2A
S21408295098470D480D4B98470B4B06221A600A4BB2
S21408296003221A71084B1422DA71074B00225A7197
S214082970054B0022DA6006480349064B98470123B0
S21408298018460837BD4680BDBC050720D92508006F
S21408299000400B40D50808007405072000800B404F
S2140829A0F907080080B485B000AF78607B6803F04C
S2140829B00703FB600C4BDB68BB60BA684FF6FF0387
S2140829C01340BB60FB681A02BB68134343F0BF633F
S2140829D043F40033BB60044BBA68DA601437BD466C
S2140829E05DF8047B704700BF00ED00E080B582B05C
S2140829F000AF084B984700237B60074858210522FC
S214082A00064B98470D20064B98475820054B984785
S214082A107860FAE7292A080000120E40610C0800C0
S214082A20391308008D0D080080B500AF054B984790
S214082A300020054B9847054B9847054B9847054B8C
S214082A40984780BD31040800A529080099040800A5
S214082A50952A08000128080080B582B000AF786083
S214082A603960014B9847FEE7CD19080080B500AFDE
S214082A700448054B98475520044B98470148044B93
S214082A80984780BD501A0E40A91508002D0E08005C
S214082A908115080080B582B000AF00237B600FE088
S214082AA00A4B7A6853F8223018464FF06051084BA4
S214082AB0984778680021074B98477B6801337B6006
S214082AC07B68022BECD90837BD4680BDA82F0800C6
S214082AD08D0E0800D92A080080B582B000AF78604D
S214082AE039607B68022B23D87B68002B06D13B68AD
S214082AF0002B14BF00230123DBB23B603B68002B8E
S214082B000BD00D4B98470D4B7A6853F82230184671
S214082B100B4B98470B4B98470AE0074B9847074BD1
S214082B207A6853F822301846074B9847054B98475B
S214082B300837BD4680BD00BF51190800A82F0800F9
S214082B40F90D080095190800C50D080080B582B073
S214082B5000AF1248124B984778603B20114B9847B5
S214082B607B6803F00103002B15D00F4B01221A7067
S214082B7055200C4B984709484FF400410B4B984793
S214082B8006484FF400310A4B98470A4B1B6803481F
S214082B901946094B98470837BD4680BD301A0E407F
S214082BA0391408002D0E080004060720BD13080077
S214082BB0E1130800080607205114080090B587B0EE
S214082BC000AF0023FB602648264B984778612448C8
S214082BD0254B984738617A693B6913407B617B6966
S214082BE003F00203002B17D0204B196807F10B02DD
S214082BF007F10C03084611461A461D4B984703462C
S214082C00012B05D1FB7A164819461A4B984703E05C
S214082C1013480221184B98477B6903F00103002BE1
S214082C2013D03B1D0E481946144B98477B68DBB2F9
S214082C30FB72134B196807F10B0207F10C030846E1
S214082C4011461A4600230F4CA047FB68002B03D0FA
S214082C500D4B4FF080521A601C37BD4690BD00BF22
S214082C6000800940DD140800C51408007005072018
S214082C70B91B0800F5140800A9140800391508003F
S214082C806C050720BD1A080004ED00E070B50F4E6D
S214082C900F4D761BB61007D0043D0024013455F8B6
S214082CA0043F9847A642F9D10A4E0B4D00F086F924
S214082CB0761BB61008D0043D0024013455F8043FAE
S214082CC09847A642F9D170BD70BD00BFC82F08004E
S214082CD0C82F0800D02F0800C82F0800032A70B491
S214082CE028D940EA01039B0713D005780C78A5423B
S214082CF024D1013A002305E010F8015F11F8014FCE
S214082D00A5421BD1934203F10103F5D1002070BC04
S214082D1070470C46034625681E682146AE4218468C
S214082D2004F1040403F1040304D1043A032A184600
S214082D302146F0D8002AD8D11046E8E7281B70BCF0
S214082D40704700BF844641EA000313F0030349D1E5
S214082D50403A23D30B6803604B6843608B688360F4
S214082D60CB68C3600B6903614B6943618B698361F8
S214082D70CB69C3610B6A03624B6A43628B6A8362E0
S214082D80CB6AC3620B6B03634B6B43638B6B8363C8
S214082D90CB6BC36340304031403ADBD230320BD382
S214082DA00B6803604B6843608B688360CB68C360BE
S214082DB010301031103AF3D20C3205D351F8043BD8
S214082DC040F8043B043AF9D2043208D0D2071CBFB4
S214082DD011F8013B00F8013B01D30B8803806046DD
S214082DE0704700BF082A13D38B07B1D010F003032F
S214082DF0AED0C3F10403D21ADB071CBF11F8013B9F
S214082E0000F8013BA4D331F8023B20F8023B9FE7C9
S214082E10043AD9D3013A11F8013B00F8013BF9D23C
S214082E200B7803704B7843708B78837060467047D6
S214082E30024B13B1024800F005B8704700000000C6
S214082E40512E0800014600200246034600F018B836
S214082E5038B5094D094C641BA41018BF05EB84054A
S214082E6005D0013C55F8043D9847002CF9D1BDE83B
S214082E70384000F0ADB800BFDC2F0800E02F08008F
S214082E80F0B5274C85B026680746D6F84841002C8A
S214082E9040D065681F2D1EDD224818B94FF0FF3058
S214082EA005B0F0BD4FF4C870039102920193AFF3DA
S214082EB0008003990446029A019B0028EED0D6F8B3
S214082EC048510020256060600546C6F84841C4F8A9
S214082ED08801C4F88C013FB96B1C0020023563607A
S214082EE044F8251005B0F0BD0126AE4004EB850079
S214082EF0C0F88820D4F88821022F42EA0602C4F8CF
S214082F008821C0F80831E7D1D4F88C311E43C4F8BC
S214082F108C61E1E706F5A674C6F84841B9E700BF34
S214082F20B82F08000000000008030202034B09023D
S214082F30030302430A03030303460B04030304487C
S214082F400C03040404430D040404044D0E04040591
S214082F5004400F040505044310050505044511063D
S214082F600505044712050606044313060606044428
S214082F701407060604461508060604471607070734
S214082F8004441708080704461807080804431908DD
S214082F9008080444A5A5A5A5A5A5A5A5A5A5A5A510
S214082FA0A5A5A5A5A5A5A5A5560000003B0000005B
S214082FB0550000004300000010000720F8B500BFC9
S214082FC0F8BC08BC9E467047312E08001901080058
S214082FD0F8B500BFF8BC08BC9E467047F500080068
S214082FE000093D00AAAAAAAAFFFFFFFF00000000EA
S214082FF000000000FC02072064030720CC0307201B
S21408300000000000000000000000000000000000B3
S21408301000000000000000000000000000000000A3
S21408302000000000B42F08000000000000000000A8
S2140830300000000000000000000000000000000083
S2140830400000000000000000000000000000000073
S2140830500000000000000000000000000000000063
S2140830600000000000000000000000000000000053
S2140830700000000000000000000000000000000043
S2140830800000000000000000000000000000000033
S2140830900000000000000000010000000000000022
S2140830A00E33CDAB34126DE6ECDE05000B000000E7
S2140830B00000000000000000000000000000000003
S2140830C000000000000000000000000000000000F3
S2140830D000000000000000000000000000000000E3
S2140830E000000000000000000000000000000000D3
S8040815C915
