:0200000280007C
:1000000020C60720F90E0800F10E0800F10E0800C6
:10001000F10E0800F10E0800F10E080000000000CB
:10002000000000000000000000000000A113080014
:10003000F10E08000000000065150800A915080071
:10004000F10E0800F10E0800F10E0800F10E080094
:10005000FD370800F10E0800F10E0800F10E08004F
:10006000F10E0800F10E080000000000D50A08009B
:10007000ED0A0800050B08001D0B08000000000039
:10008000000000008D390800F10E0800F10E080094
:10009000F10E0800F10E0800F10E0800F10E080044
:1000A000F10E080000000000F10E0800F10E08003B
:1000B000F10E0800F10E0800F10E0800F10E080024
:1000C000F10E0800F10E0800F10E0800F10E080014
:1000D000F10E0800F10E0800F10E0800F10E080004
:1000E000F10E0800F10E0800F10E0800F10E0800F4
:1000F000F10E080010B5054C237833B9044B13B149
:100100000448AFF300800123237010BD380407209A
:1001100000000000F03D080008B5064B1BB1064882
:100120000649AFF300800648036813B1054B03B1DD
:10013000984708BD00000000F03D08003C0407207F
:10014000F03D08000000000080B582B000AF78608C
:100150007B68072B2ED801A252F823F0B5010800C6
:100160007D010800850108008D0108009501080047
:100170009D010800A5010800AD01080000200F4BFB
:10018000984717E001200D4B984713E000200C4BD7
:1001900098470FE010200A4B98470BE02020084BAF
:1001A000984707E00020074B984703E00120054BE4
:1001B000984700BF0837BD4680BD00BFB90B080097
:1001C000290C0800C90C080080B582B000AF786027
:1001D0007B68072B26D801A252F823F0FD01080006
:1001E00001020800010208001302080013020800BF
:1001F000130208001302080013020800012312E092
:100200000B4B98470346002B0CBF00230123DBB2A6
:1002100009E0084B98470346002B0CBF002301233D
:10022000DBB200E0002318460837BD4680BD00BFA2
:10023000F50B0800350D080080B483B000AF78607E
:100240007B68072B25D801A252F823F06D02080025
:1002500073020800790208007F0208008302080088
:10026000870208008B0208008F0208004FF4FA434F
:1002700010E04FF400430DE04FF400430AE0084B58
:1002800008E0084B06E0084B04E0074B02E0064B91
:1002900000E0002318460C37BD465DF8047B70472C
:1002A00000093D0000127A00001BB70080B582B043
:1002B00000AF0346FB7100BFFB791846054B98471A
:1002C000034683F00103DBB2002BF5D10837BD46AE
:1002D00080BD00BFC901080080B586B000AFF860DE
:1002E0007A603B600B46FB727B68002B07D13B6852
:1002F000002B04D1FB684FF470021A6019E0FB7AFE
:1003000018460D4B984702467B68B2FBF3F37B61BE
:100310007B693A6802FB03F37B613B68013B1A048B
:10032000064B13407A68D2B2134343F47C52FB6805
:100330001A601837BD4680BD390208000000FF076B
:1003400080B582B000AF786039603B68002B08D17F
:10035000084B9847084B7A68126842F000529A623C
:1003600005E0054B7A68126842F48032DA6108379A
:10037000BD4680BD510D080000060E4080B582B01C
:1003800000AF78607B68002B03D1054B984703468C
:1003900002E0044B9847034618460837BD4680BD27
:1003A000690D0800850D080080B582B000AF0346D6
:1003B000FB71FB79033B042B08D8FB791846054BEE
:1003C0009847FB791846044B984700E000BF083770
:1003D000BD4680BD49010800AD02080080B582B06D
:1003E00000AF786000BF7868044B98470346002B45
:1003F000F9D0002318460837BD4680BD7D030800AC
:1004000080B500AF0620044B984702461346DB0038
:100410009B1A5B00184680BD3902080080B500AF0A
:10042000024B984703465B08184680BD010408004C
:1004300090B583B000AF104B9847034618460F4B5A
:10044000984706200E4B98473B1D1846062101226F
:100450000E230C4CA0473B1D184600210A4B984721
:1004600000200A4B98471020094B984700BF094BC2
:1004700098470C37BD4690BD1D04080021110800A7
:10048000A9030800D902080041030800DD030800A1
:10049000350B0800A10F080080B483B000AF0346FD
:1004A000FB71084B97F907205209F97901F01F01F8
:1004B000012000FA01F143F822100C37BD465DF827
:1004C000047B704700E100E080B483B000AF0346D6
:1004D000FB71094B97F907205209F97901F01F01C7
:1004E000012000FA01F1203243F822100C37BD46FA
:1004F0005DF8047B704700BF00E100E080B483B08A
:1005000000AF0346FB71094B97F907205209F979AF
:1005100001F01F01012000FA01F1603243F82210BE
:100520000C37BD465DF8047B704700BF00E100E07A
:1005300080B483B000AF03463960FB7197F9073090
:10054000002B0BDA0D49FB7903F00F03043B3A68EB
:10055000D2B21201D2B20B441A7609E0084997F9D7
:1005600007303A68D2B21201D2B20B4483F80023AA
:100570000C37BD465DF8047B704700BF00ED00E01E
:1005800000E100E090B583B000AF264B7B607D2397
:100590003B603B689AB23B689BB223487968234C26
:1005A000A0470420224B98470420224B9847042060
:1005B0000021214B98470420204B984757204FF0AB
:1005C00040511F4B984757201E4B98473B204FF0F8
:1005D00060511B4B984755204FF06051184B98477E
:1005E00056204FF06051164B984787201649144B00
:1005F000984737201549124B98470A204FF0006161
:100600000F4B98470B204FF000610D4B98478E2001
:100610004FF040510A4B98478E200D4B98470C37AE
:10062000BD4690BD00700020501A0E40790E0800A3
:10063000C9040800FD0408003105080099040800F9
:10064000F50808002D080800790000285900002846
:100650006108080080B485B000AFF860B9607A60C6
:100660007B68002B03D0FB68BA685A6602E0FB681F
:10067000BA681A661437BD465DF8047B704700BF40
:1006800080B487B000AFF860B9607A60FB687A68C0
:100690005A64BB68B3F1805F1FD0B3F1805F05D8A7
:1006A000002B27D0B3F1006F0AD01FE0B3F1405FF9
:1006B00020D0B3F1605F1DD0B3F1205F1AD015E0F8
:1006C000FB681B6F7B61FB681A6F7B68D9437B6992
:1006D0000B401A40FB681A6708E0FB681B6F7B61E0
:1006E0007A687B691A43FB681A6700BFFB687A68FF
:1006F0005A6000E000BF1C37BD465DF8047B7047C0
:1007000080B584B000AFF860B9607A60F868B96805
:10071000184B98477B6803F00103F868B9681A46DC
:10072000154B98477B6803F00A03002B03D0FB6846
:10073000BA681A6202E0FB68BA685A627B6803F022
:100740000203002B04D0FB68BA68C3F8802008E0DD
:100750007B6803F00803002B03D0FB68BA68C3F87A
:100760008020FB68BA685A61FB68BA681A60103763
:10077000BD4680BDE10708005506080080B584B07D
:1007800000AFF860B9607A603B60F868B968124BF6
:100790009847F868B968BA69104B98473B68002BCE
:1007A00003D0FB68BA681A6502E0FB68BA685A654C
:1007B0007B68002B03D0FB68BA681A6302E0FB6811
:1007C000BA685A63FB68BA681A61FB68BA681A604B
:1007D0001037BD4680BD00BFE10708005506080080
:1007E00080B483B000AF786039607B683A685A643F
:1007F0000C37BD465DF8047B704700BF80B483B002
:1008000000AF78607B68DB6C18460C37BD465DF83E
:10081000047B704780B483B000AF78607B689B6CCA
:1008200018460C37BD465DF8047B704780B485B030
:1008300000AF78607B685B0903F5001303F2077370
:100840005B02FB607B6803F01F03012202FA03F3E3
:100850001A46FB681A631437BD465DF8047B70477F
:1008600080B485B000AF78607B685B0903F5001346
:1008700003F207735B02FB607B6803F01F03012236
:1008800002FA03F31A46FB685A631437BD465DF853
:10089000047B704780B485B000AF78607B685B09EB
:1008A00003F5001303F207735B02FB60FB689A6BAE
:1008B0007B6803F01F03012101FA03F31340002BAF
:1008C00009D07B6803F01F03012202FA03F31A46E2
:1008D000FB685A6308E07B6803F01F03012202FAF9
:1008E00003F31A46FB681A631437BD465DF8047BB0
:1008F000704700BF90B587B002AF786039607B6801
:100900005B0903F5001303F207735B02FB603B68AE
:1009100003F0F043B3F1205F48D0B3F1205F06D875
:10092000B3F1006F0AD0B3F1805F23D070E0B3F170
:10093000405F47D0B3F1605F44D069E07B6803F06B
:100940001F03012202FA03F3F8684FF000611A4610
:10095000334B98477B6803F01F03012202FA03F32D
:100960001A463B6803F00103F86811461A462D4BFE
:1009700098474FE07B6803F01F03012202FA03F35C
:10098000F8684FF080511A46254B98477B6803F072
:100990001F03012202FA03F31A463B6803F0010326
:1009A000F86811461A461F4B984733E07B6803F0FE
:1009B0001F03012202FA03F3F86819463A681A4B3A
:1009C000984727E07B6803F01F03012202FA03F334
:1009D00019463B6803F06053B3F1605F14BF002316
:1009E0000123DBB21A463B6803F00403002B0CBF63
:1009F00000230123DBB2386800F0010000280CBF9F
:100A000000200120C0B20090F868084CA04701E027
:100A1000002300E0012318461437BD4690BD00BFF7
:100A20008106080055060800010708007D07080038
:100A300080B584B000AF786039607868224B984701
:100A4000F8607868214B98470346FA681340FB60CA
:100A5000FB68002B35D00023BB602FE01C4ABB682D
:100A60001B0113441A683B689A4224D1184ABB6898
:100A70001B0113445A68FB681340002B1BD0144A17
:100A8000BB681B01134408335B681149BA68120143
:100A90000A4411680E48BA681201024452680846B6
:100AA000114698470A4ABB681B0113445B68DB4345
:100AB000FA681340FB60BB680133BB60FB68002B26
:100AC000CCD11037BD4680BDFD07080015080800D1
:100AD0005404072080B500AF02480B21024B984711
:100AE00080BD00BF000E0E40310A080080B500AF87
:100AF00002480C21024B984780BD00BF00100E40F9
:100B0000310A080080B500AF02480D21024B98471A
:100B100080BD00BF00120E40310A080080B500AF52
:100B200002480E21024B984780BD00BF00140E40C2
:100B3000310A080080B485B000AF78601D4B1D4AB3
:100B4000126B22F070017A680A431A634FF4006353
:100B5000FB6007E0FB68002B01D1012323E0FB6869
:100B6000013BFB60134B9B6E03F00803002BF1D09D
:100B7000104B104A126B22F0030242F002021A6379
:100B80004FF40063FB6007E0FB68002B01D10123F9
:100B900009E0FB68013BFB60064B9B6E03F008031A
:100BA000002BF1D0002318461437BD465DF8047BB6
:100BB000704700BF00060E4080B483B000AF78607D
:100BC0007B68012B07D10A4A094B9B6843F02543F8
:100BD00043F480139360064A054B1B6843F025439A
:100BE00043F0080313600C37BD465DF8047B704783
:100BF000101A0E4080B400AF094B5B6903F080030C
:100C0000002B07D0074B9B6E03F08003002B01D015
:100C1000012300E000231846BD465DF8047B7047C1
:100C2000101A0E4000060E4080B485B000AF786008
:100C30000023FB60214B1B6A03F00103002B0ED045
:100C40001E4A1E4B1B6A23F45C1323F07803796859
:100C50000B4343F45C1343F0080313620BE00123DE
:100C6000FB60164A154B196A154B0B4079681943FE
:100C7000144B0B43136200BF104B9B6E03F4003305
:100C8000002BF9D00D4A0D4B1B6A23F09B7323F404
:100C9000803343F45C131362FB68002B09D0074ACE
:100CA000064B1B6A23F45C1323F0010343F45C132B
:100CB00013621437BD465DF8047B704700060E4092
:100CC00086C0C8FF093F370080B483B000AF7860AA
:100CD0007B68002B08D01249114B1B6A114A1A403D
:100CE000114B13430B6216E00D490D4B1B6A0F4A63
:100CF0001A400F4B13430B6200BF094B9B6E03F06E
:100D00000103002BF9D0064A054B1B6A43F09B7385
:100D100043F4803313620C37BD465DF8047B7047A3
:100D200000060E40FCFFC8FE02003701FCC0C8FFF1
:100D3000013F370080B400AF044B9B6E03F4803357
:100D40001846BD465DF8047B704700BF00060E40A4
:100D500080B400AF034B4FF000529A62BD465DF87D
:100D6000047B704700060E4080B400AF044B9B6EBE
:100D700003F002031846BD465DF8047B704700BFD0
:100D800000060E4080B400AF044B9B6E03F040039E
:100D90001846BD465DF8047B704700BF00060E4054
:100DA00080B483B000AF786039607B683A68DA60FD
:100DB0000C37BD465DF8047B704700BF80B483B03C
:100DC00000AF78607B681B6918460C37BD465DF83C
:100DD000047B704780B483B000AF78607B685B6948
:100DE00018460C37BD465DF8047B704780B485B06B
:100DF00000AF786039604FF47A73FB6006E0FB68FF
:100E00005A1EFA60002B01D101230BE07B685B695D
:100E100003F00203002BF2D03B68C3F308027B68A7
:100E2000DA61002318461437BD465DF8047B70472D
:100E300080B485B000AF786039604FF47A73FB609E
:100E400006E0FB685A1EFA60002B01D101230CE07A
:100E50007B685B6903F00103002BF2D07B689B6920
:100E6000C3F308023B681A60002318461437BD46D6
:100E70005DF8047B704700BF80B485B000AFF860B8
:100E8000B960FA80BB80FB88C3F30B02BB681A43CE
:100E9000BB881B041946054B0B401A43FB685A607C
:100EA0001437BD465DF8047B704700BF0000FF0F9C
:100EB00080B483B000AF78607A68054B9A4202D163
:100EC0007B68044A1A600C37BD465DF8047B7047A6
:100ED000501A0E40010000A580B483B000AF7860C6
:100EE0007B689B6818460C37BD465DF8047B7047ED
:100EF00080B400AFFEE700BF80B582B000AF1E4BEC
:100F00007B601E4B3B607A683B689A420CD007E0DE
:100F10003B681A1D3A607A68111D796012681A6080
:100F20003A68174B9A42F3D3164B3B6004E03B6898
:100F30001A1D3A6000221A603A68134B9A42F6D39F
:100F4000124B7B60124A7B6823F0604323F07F03DF
:100F500093607B68B3F1005F09D37A680D4B9A42C6
:100F600005D80B4B0A4A926842F000529A600A4B2D
:100F700098470A4B9847FEE7F03D0800000007201D
:100F8000380407203804072020A6072000000800A6
:100F900000ED00E0FFFF0F205D3A08008D370800EC
:100FA00080B400AF564B1B6B03F00303032B00F21E
:100FB0008A8001A151F823F0C90F0800E90F080049
:100FC00039100800391008004E4B5B6903F08003AC
:100FD000002B04D04C4B4FF400421A6073E04A4B94
:100FE0004FF4FA421A606EE0454B1B6A03F08073BF
:100FF000002B03D0444B454A1A601CE0424B444A44
:101000001A603F4B1B6A03F07003102B04D0202B97
:1010100008D0002B0ED00EE03B4B1B685A003A4B19
:101020001A6008E0384B1A6813465B001A44364BC6
:101030001A6000E000BF46E0314B1B6A03F080738A
:10104000002B03D0304B314A1A601CE02E4B304A43
:101050001A602B4B1B6A03F07003102B04D0202B5B
:1010600008D0002B0ED00EE0274B1B685A00264BF1
:101070001A6008E0244B1A6813465B001A44224B9E
:101080001A6000E000BF1E4B1B6B03F00303022B32
:1010900015D11B4B9A6A1F4B13401B0C01331A4A84
:1010A000126802FB03F2184B1A60174B1A68144BB4
:1010B0009B6ADBB2B2FBF3F2134B1A6002E0124BF5
:1010C000154A1A6000BF0E4B1B6B03F07003702BA8
:1010D00008D10D4B1A68114BA3FB02135A080A4B97
:1010E0001A6009E0084B1A68054B1B6B03F070038C
:1010F0001B09DA40044B1A60BD465DF8047B70475B
:1011000000060E40101A0E4000000720001BB7001A
:1011100000093D000000FF07001C4E0EABAAAAAA62
:1011200080B483B000AF78607A681F4B9A4206D8CB
:101130001E4B00221A601E4B00221A602EE07A68B5
:101140001C4B9A4208D8194B4FF480721A60184B06
:101150004FF480721A6021E07A68174B9A4208D8DF
:10116000124B4FF400721A60114B4FF400721A6068
:1011700014E07A68114B9A4208D80C4B4FF4407235
:101180001A600B4B4FF440721A6007E0074B4FF4A4
:1011900080621A60064B4FF480621A600C37BD46BD
:1011A0005DF8047B704700BF9F525701000A0E4054
:1011B000000C0E407FCC06023FB728037F2FA60409
:1011C00080B483B000AF78607B6803F108027B686D
:1011D0005A607B684FF0FF329A607B6803F1080227
:1011E0007B68DA607B6803F108027B681A617B68C0
:1011F00000221A600C37BD465DF8047B704700BFC3
:1012000080B483B000AF78607B6800221A610C372D
:10121000BD465DF8047B704780B485B000AF786050
:1012200039607B685B68FB603B68FA685A60FB6802
:101230009A683B689A60FB689B683A685A60FB68EA
:101240003A689A603B687A681A617B681B685A1C26
:101250007B681A601437BD465DF8047B704700BF99
:1012600080B485B000AF786039603B681B68BB60B4
:10127000BB68B3F1FF3F03D17B681B69FB600CE0E7
:101280007B680833FB6002E0FB685B68FB60FB681F
:101290005B681A68BB689A42F6D9FB685A683B6873
:1012A0005A603B685B683A689A603B68FA689A6083
:1012B000FB683A685A603B687A681A617B681B6809
:1012C0005A1C7B681A601437BD465DF8047B704772
:1012D00080B485B000AF78607B681B69FB607B6879
:1012E0005B687A6892689A607B689B687A685268E3
:1012F0005A60FB685A687B689A4203D17B689A6897
:10130000FB685A607B6800221A61FB681B685A1EE2
:10131000FB681A60FB681B6818461437BD465DF809
:10132000047B704780B485B000AFF860B9607A6024
:10133000FB68043BFB60FB684FF080721A60FB683F
:10134000043BFB60BA68FB681A60FB68043BFB6007
:10135000094AFB681A60FB68143BFB607A68FB680B
:101360001A60FB68203BFB60FB6818461437BD46DB
:101370005DF8047B704700BF7D13080080B500AFA7
:10138000054B1B68B3F1FF3F02D0044B9847FEE7C3
:10139000024B9847FEE700BF0400072049150800EC
:1013A000074B19680868B0E8F00F80F30988BFF3AD
:1013B0006F8F4FF0000080F311884EF00D0E7047D4
:1013C000E4A4072006480068006880F3088862B635
:1013D00061B6BFF34F8FBFF36F8F00DF00BF000018
:1013E00008ED00E080B584B000AF284BFB60FB68DF
:1013F0001B78DBB2BB60FB68FF221A70FB681B78AE
:10140000DBB2FB71FB79DBB223F05F03DAB2204B76
:101410001A70204B07221A6009E01E4B1B685A1EE7
:101420001C4B1A60FB79DBB25B00DBB2FB71FB7912
:10143000DBB2DBB25BB2002BEFDB164B1B681A0290
:10144000144B1A60134B1B6803F4E062114B1A60D3
:10145000BB68DAB2FB681A700F4B0F4A126842F48D
:1014600070021A600C4B0C4A126842F070421A600B
:101470000A4B98470A4B00221A600A4B98470A4BBE
:101480009847002318461037BD4680BD00E400E0B1
:10149000C4040720C804072020ED00E0DD15080083
:1014A00004000720C51308007D13080080B400AFB6
:1014B000054B4FF080521A60BFF34F8FBFF36F8F11
:1014C000BD465DF8047B704704ED00E080B500AFD9
:1014D0000C4B98470C4B1B685A1C0B4B1A60BFF304
:1014E0004F8FBFF36F8F084B1B68012B08D1074B41
:1014F0001B6803F01F03002B02D0024B9847FEE746
:1015000080BD00BF491508000400072004ED00E07D
:1015100080B500AF094B1B68002B02D1084B9847E0
:10152000FEE7064B1B685A1E044B1A60034B1B68F0
:10153000002B02D10020034B984780BD04000720F8
:10154000491508005D150800EFF311804FF0A00168
:1015500081F3118870470023184600BF80F311887B
:10156000704700BFEFF30980BFF36F8F0D4B1A6810
:1015700020E9F00F10602DE908404FF0A00080F343
:10158000118801F073F94FF0000080F31188BDE875
:10159000084019680868B0E8F00F80F30988BFF3C5
:1015A0006F8F7047E4A4072080B500AF074B9847C2
:1015B000074B98470346002B03D0064B4FF0805251
:1015C0001A600020044B984780BD00BF49150800F1
:1015D000F126080004ED00E05D15080080B400AFBE
:1015E000074B084A1168084AA2FB0102D208013AD7
:1015F0001A60064B07221A60BD465DF8047B7047EF
:1016000014E000E000000720CDCCCCCC10E000E0DE
:1016100080B582B000AFEFF305837B607B680F2B52
:101620000CD90D4A7B6813441B78FB700B4B1B785D
:10163000FA789A4202D20A4B9847FEE7094B1B6898
:1016400003F4E062084B1B689A4202D9044B9847A6
:10165000FEE70837BD4680BDF0E300E0C404072084
:10166000491508000CED00E0C804072080B586B0DD
:1016700000AF78600023FB604F4B98474F4B1B68CF
:10168000002B01D14E4B98474E4B1A687B68134094
:10169000002B7DD17B68002B15D008237A6813447A
:1016A0007B607B6803F00703002B0CD07B6823F082
:1016B000070308337B607B6803F00703002B02D02D
:1016C000414B9847FEE77B68002B61D03F4B1B687E
:1016D0007A689A425CD83E4B3B613D4B1B687B610C
:1016E00004E07B693B617B691B687B617B695A68AD
:1016F0007B689A4203D27B691B68002BF1D12F4B88
:101700001B687A699A4243D03B691A6808231344DC
:10171000FB607B691A683B691A607B695A687B6861
:10172000D21A08235B009A4217D97A697B6813445E
:10173000BB60BB6803F00703002B02D0224B984725
:10174000FEE77B695A687B68D21ABB685A607B697E
:101750007A685A60B8681F4B98471C4B1A687B69B7
:101760005B68D21A194B1A60184B1A681A4B1B681F
:101770009A4203D2154B1A68174B1A607B695A6854
:10178000104B1B681A437B695A607B6900221A6000
:10179000124B9847FB68002B01D1114B9847FB680F
:1017A00003F00703002B02D0074B9847FEE7FB68C6
:1017B00018461837BD4680BD85250800D4A40720EB
:1017C00089180800E0A4072049150800D8A40720BC
:1017D000CCA407204D190800DCA40720A12508008F
:1017E000D937080080B584B000AF78607B68FB60B3
:1017F0007B68002B38D008235B42FA681344FB60F7
:10180000FB68BB60BB685A68194B1B681340002B10
:1018100002D1184B9847FEE7BB681B68002B02D02B
:10182000144B9847FEE7BB685A68114B1B6813407E
:10183000002B19D0BB681B68002B15D1BB685A68F8
:101840000B4B1B68DB431A40BB685A600A4B984736
:10185000BB685A68094B1B681A44084B1A60B86881
:10186000074B9847074B98471037BD4680BD00BFD0
:10187000E0A407204915080085250800D8A4072002
:101880004D190800A125080080B485B000AF4FF4C1
:101890002043BB60274BFB60FB6803F00703002B72
:1018A0000CD0FB680733FB60FB6823F00703FB6089
:1018B000BA68FB68D21A1F4B1344BB60FB687B609D
:1018C0001D4B7A681A601C4B00225A607A68BB680C
:1018D0001344FB600823FA68D31AFB60FB6823F00B
:1018E0000703FB60FA68154B1A60144B1B68002253
:1018F0005A60124B1B6800221A607B683B603B6891
:10190000FA68D21A3B685A600C4B1A683B681A6036
:101910003B685A680A4B1A603B685A68094B1A6060
:10192000094B4FF000421A601437BD465DF8047B46
:10193000704700BFCC040720CCA40720D4A4072004
:10194000DCA40720D8A40720E0A4072080B485B039
:1019500000AF7860274BFB6002E0FB681B68FB6010
:10196000FB681A687B689A42F7D3FB68BB60FB6828
:101970005B68BA681A447B689A4208D1FB685A6867
:101980007B685B681A44FB685A60FB687B607B6815
:10199000BB607B685B68BA681A44FB681B689A4244
:1019A00018D1FB681A68144B1B689A420DD07B68EB
:1019B0005A68FB681B685B681A447B685A60FB685E
:1019C0001B681A687B681A6008E00B4B1A687B6812
:1019D0001A6003E0FB681A687B681A60FA687B6823
:1019E0009A4202D0FB687A681A601437BD465DF8E7
:1019F000047B7047CCA40720D4A4072080B584B012
:101A000000AF786039607B68FB60FB68002B02D117
:101A1000264B9847FEE7264B9847FB681A68FB68F9
:101A2000DB6BF968096C01FB03F31A44FB685A602D
:101A3000FB6800229A63FB681A68FB689A60FB687F
:101A40001A68FB68DB6B013BF968096C01FB03F367
:101A50001A44FB68DA60FB684FF0FF325A64FB6897
:101A60004FF0FF329A643B68002B0ED1FB681B6974
:101A7000002B14D0FB68103318460E4B98470346D2
:101A8000012B0CD10C4B984709E0FB68103318462A
:101A90000A4B9847FB6824331846084B9847084B75
:101AA0009847012318461037BD4680BD49150800E8
:101AB000CD140800892A0800AD140800C1110800DF
:101AC0001115080080B588B000AFF860B960134602
:101AD000FB710023FB61FB68002B26D04C20184BC8
:101AE0009847B861BB69002B1FD0FB68BA6802FB3E
:101AF00003F301337B617869114B98470246BB6958
:101B00001A60BB691B68002B0CD0BB69FA68DA63EA
:101B1000BB69BA681A64B86901210A4B9847BB6966
:101B2000FB6102E0B869084B9847FB69002B02D1C2
:101B3000064B9847FEE7FB6918462037BD4680BD37
:101B40006D160800FD190800E51708004915080082
:101B500080B58AB000AFF860B9607A603B6000235E
:101B60007B62FB683B623B6A002B02D15B4B984770
:101B7000FEE7BB68002B03D13B6A1B6C002B01D135
:101B8000012300E00023002B02D1544B9847FEE7CD
:101B90003B68022B03D13B6ADB6B012B01D1012394
:101BA00000E00023002B02D14C4B9847FEE74C4B42
:101BB00098470346002B02D17B68002B01D10123FB
:101BC00000E00023002B02D1444B9847FEE7454B31
:101BD00098473B6A9A6B3B6ADB6B9A4202D33B683D
:101BE000022B1DD1386AB9683A683F4B9847F861B3
:101BF0003B6A5B6A002B0AD03B6A243318463B4B96
:101C000098470346012B07D1394B984704E0FB69FD
:101C1000002B01D0364B9847364B9847012359E0AB
:101C20007B68002B03D1334B9847002352E07B6A3B
:101C3000002B06D107F1140318462F4B98470123B8
:101C40007B622C4B98472D4B9847264B98473B6A15
:101C50005B6CB3F1FF3F02D13B6A00225A643B6ADE
:101C60009B6CB3F1FF3F02D13B6A00229A64214B87
:101C7000984707F114023B1D10461946204B984720
:101C80000346002B1ED1386A1E4B98470346002B93
:101C900012D03B6A03F110027B68104619461A4BBA
:101CA0009847386A194B9847194B98470346002BB9
:101CB0000FD10F4B98470CE0386A144B9847144BE0
:101CC000984784E7386A114B9847114B984700238F
:101CD00000E07CE718462837BD4680BD491508005E
:101CE000612F0800CD140800D5200800892A0800BB
:101CF000AD14080011150800492B080085250800BF
:101D0000812B0800E5220800692908000922080043
:101D1000A125080080B588B000AFF860B9607A608E
:101D20003B60FB68BB61BB69002B02D1334B98471A
:101D3000FEE7BB68002B03D1BB691B6C002B01D1F4
:101D4000012300E00023002B02D12C4B9847FEE733
:101D50003B68022B03D1BB69DB6B012B01D1012353
:101D600000E00023002B02D1244B9847FEE7244BD0
:101D70009847224B98477861BB699A6BBB69DB6BCC
:101D80009A4202D33B68022B2DD1B869B9683A68F0
:101D90001C4B98470346002B05D07B68002B02D0D4
:101DA0007B6801221A60BB699B6CB3F1FF3F12D1C3
:101DB000BB695B6A002B13D0BB6924331846124BF6
:101DC00098470346002B0BD07B68002B08D07B681C
:101DD00001221A6004E0BB699B6C5A1CBB699A64BF
:101DE0000123FB6101E00023FB617869074B984701
:101DF000FB6918462037BD4680BD00BF4915080065
:101E000011160800D5200800892A08005D15080071
:101E100080B58AB000AFF860B9607A603B6000239B
:101E20007B62FB683B623B6A002B02D1674B9847A1
:101E3000FEE7BB68002B03D13B6A1B6C002B01D172
:101E4000012300E00023002B02D1604B9847FEE7FE
:101E50005F4B98470346002B02D17B68002B01D1D2
:101E6000012300E00023002B02D1584B9847FEE7E6
:101E7000584B98473B6A9B6B002B3BD03B6ADB6817
:101E8000FB61386AB968544B98473B68002B1CD1FA
:101E90003B6A9B6B5A1E3B6A9A633B6A1B68002B2A
:101EA00004D14E4B984702463B6A5A603B6A1B6915
:101EB000002B1BD03B6A10331846494B984703460A
:101EC000012B13D1474B984710E03B6AFA69DA605F
:101ED0003B6A5B6A002B09D03B6A24331846404BAF
:101EE00098470346002B01D03E4B98473E4B9847FE
:101EF000012366E07B68002B03D13B4B984700230E
:101F00005FE07B6A002B06D107F114031846374BBC
:101F1000984701237B62344B9847354B98472D4BAC
:101F200098473B6A5B6CB3F1FF3F02D13B6A0022EA
:101F30005A643B6A9B6CB3F1FF3F02D13B6A0022BB
:101F40009A64294B984707F114023B1D1046194625
:101F5000284B98470346002B2BD1386A264B9847CD
:101F60000346002B1FD03B6A1B68002B08D1194B7E
:101F700098473B6A5B681846204B98471A4B98472E
:101F80003B6A03F124027B68104619461C4B9847B4
:101F9000386A1C4B98471C4B98470346002B0FD1BF
:101FA000104B98470CE0386A164B9847164B9847E9
:101FB0005EE7386A134B9847134B9847002300E0BD
:101FC00056E718462837BD4680BD00BF49150800B2
:101FD000612F0800CD140800B921080075310800F0
:101FE000892A0800AD14080011150800492B0800C3
:101FF00085250800812B0800B12208009D2F0800CC
:102000006929080009220800A125080080B588B0C8
:1020100000AFF860B9607A60FB68BB61BB69002BF8
:1020200002D1274B9847FEE7BB68002B03D1BB6961
:102030001B6C002B01D1012300E00023002B02D1F7
:102040001F4B9847FEE71F4B98471D4B98477861F9
:10205000BB699B6B002B28D0B869B9681A4B9847AD
:10206000BB699B6B5A1EBB699A63BB695B6CB3F11E
:10207000FF3F12D1BB691B69002B13D0BB69103322
:102080001846124B98470346002B0BD07B68002B59
:1020900008D07B6801221A6004E0BB695B6C5A1CA3
:1020A000BB695A640123FB6101E00023FB6178698D
:1020B000074B9847FB6918462037BD4680BD00BFD7
:1020C0004915080011160800B9210800892A0800DE
:1020D0005D15080080B586B000AFF860B9607A6021
:1020E00000237B61FB681B6C002B0DD1FB681B6818
:1020F000002B52D1FB685B6818462D4B98477861DE
:10210000FB6800225A6048E07B68002B1AD1FB680C
:102110009A68FB681B6C1046B9681A46254B9847AD
:10212000FB689A68FB681B6C1A44FB689A60FB6842
:102130009A68FB685B689A422FD3FB681A68FB6851
:102140009A602AE0FB68DA68FB681B6C1046B96885
:102150001A46184B9847FB68DA68FB681B6C5B42B1
:102160001A44FB68DA60FB68DA68FB681B689A420D
:1021700007D2FB685A68FB681B6C5B421A44FB6819
:10218000DA607B68022B08D1FB689B6B002B04D0C4
:10219000FB689B6B5A1EFB689A63FB689B6B5A1C1F
:1021A000FB689A637B6918461837BD4680BD00BF3F
:1021B00091300800153B080080B582B000AF786010
:1021C00039607B681B6C002B19D07B68DA687B68F0
:1021D0001B6C1A447B68DA607B68DA687B685B6832
:1021E0009A4203D37B681A687B68DA607B68DA6896
:1021F0007B681B6C386811461A46024B98470837B3
:10220000BD4680BD153B080080B582B000AF786048
:10221000234B984714E07B685B6A002B0AD07B68ED
:10222000243318461F4B98470346002B03D01E4B00
:10223000984700E008E07B689B6C5A1E7B689A64B4
:102240007B689B6C002BE6DC7B684FF0FF329A6466
:10225000164B9847124B984714E07B681B69002B7C
:102260000FD07B68103318460E4B98470346002B5F
:1022700001D00D4B98477B685B6C5A1E7B685A6493
:1022800000E003E07B685B6C002BE6DC7B684FF0D2
:10229000FF325A64054B98470837BD4680BD00BFE2
:1022A000CD140800892A0800312C080011150800F7
:1022B00080B584B000AF7860084B98477B689B6B13
:1022C000002B02D10123FB6001E00023FB60044BE3
:1022D0009847FB6818461037BD4680BDCD140800EE
:1022E0001115080080B584B000AF7860094B98479D
:1022F0007B689A6B7B68DB6B9A4202D10123FB609F
:1023000001E00023FB60044B9847FB681846103738
:10231000BD4680BDCD1408001115080080B584B0FD
:1023200000AF786039607B68FB60124B9847FB68B0
:102330005B6CB3F1FF3F02D1FB6800225A64FB687B
:102340009B6CB3F1FF3F02D1FB6800229A640A4BF9
:102350009847FB689B6B002B05D1FB68243318461C
:102360003968064B9847F868054B98471037BD46C3
:1023700080BD00BFCD14080011150800092A08000F
:102380000922080090B58BB002AFF860B9603B60DD
:102390001346FB80FB68002B02D14B4B9847FEE7AE
:1023A0003B6B042B02D9484B9847FEE7FB88184645
:1023B000B96B464B9847B861BB69002B6DD0BB69C0
:1023C0001A6BFB8803F18043013B9B0013447B6144
:1023D0007B6923F007037B617B6903F00703002B14
:1023E00002D0394B9847FEE7FB880093B869B9687B
:1023F0003A6BFB6B364CA0477869F9683A68354B05
:1024000098470246BB691A607B6B002B02D07B6B3E
:10241000BA691A60304B9847304B1B685A1C2F4BD7
:102420001A602F4B1B68002B09D12D4BBA691A601B
:102430002A4B1B68012B0FD12A4B98470CE02A4BE3
:102440001B68002B08D1264B1B68DA6A3B6B9A424B
:1024500002D8234BBA691A60244B1B685A1C234BC1
:102460001A60BB69DB6A01229A40214B1B681A4340
:102470001F4B1A60BB69DA6A13469B0013449B002A
:102480001C4A1A44BB690433104619461A4B984734
:102490000123FB61194B984702E04FF0FF33FB61CA
:1024A000FB69012B0BD1104B1B68002B07D00C4B89
:1024B0001B68DA6A3B6B9A4201D2114B9847FB6961
:1024C00018462437BD4690BD49150800852E0800E2
:1024D000712C080025130800CD140800BCA50720A6
:1024E000E4A40720092D0800C8A50720D8A50720C7
:1024F000C4A50720E8A40720191208001115080038
:10250000AD14080090B587B004AF002300930023FA
:10251000019300230293002303931248124982225D
:102520000023124CA04778607B68012B02D1104B2E
:10253000984778607B68012B0AD10E4B98470E4B69
:1025400001221A600D4B00221A600D4B984705E0DE
:102550007B68002B02D1074B9847FEE70C37BD463E
:1025600090BD00BF492C08008C3D08008523080061
:102570009D31080049150800C8A50720C0A50720FF
:10258000E513080080B400AF044B1B685A1C034BD2
:102590001A60BD465DF8047B704700BFDCA50720CC
:1025A00080B582B000AF00237B60374B1B68002BE7
:1025B00002D1364B9847FEE7354B9847324B1B68A4
:1025C0005A1E314B1A60304B1B68002B55D1314BD2
:1025D0001B68002B51D02EE02F4BDB68DB683B6083
:1025E0003B68183318462D4B98473B680433184610
:1025F0002A4B98473B68DB6A01229A40284B1B68AC
:102600001A43274B1A603B68DA6A13469B0013444F
:102610009B00244A1A443B68043310461946224B57
:1026200098473B68DA6A214B1B68DB6A9A4202D3FF
:102630001F4B01221A60184B1B68002BCCD11D4B7D
:102640001B68002B11D00CE01B4B98470346002B56
:1026500002D0174B01221A60164B1B685A1E154BED
:102660001A60144B1B68002BEED1114B1B68012B19
:1026700003D101237B60114B9847114B98477B682E
:1026800018460837BD4680BDDCA50720491508005F
:10269000CD140800BCA507207CA50720D112080096
:1026A000C4A50720E8A4072019120800E4A4072005
:1026B000D0A50720CCA50720F1260800AD140800FE
:1026C0001115080080B582B000AF064B9847064B45
:1026D0001B687B60054B98477B6818460837BD46EA
:1026E00080BD00BFCD140800C0A50720111508004B
:1026F00080B586B000AF00237B614D4B1B68002B7B
:1027000040F086804B4B1B685A1C4A4B1A60494B61
:102710001B683B613B69002B18D1474B1B681B684A
:10272000002B02D0454B9847FEE7434B1B68FB60EC
:10273000434B1A68404B1A60414BFA681A60414B90
:102740001B685A1C3F4B1A603F4B98473F4B1B6816
:102750003A699A424DD3384B1B681B68002B01D154
:10276000012300E00023002B04D0384B4FF0FF3250
:102770001A603EE0304B1B68DB68DB68BB60BB68FF
:102780005B687B603A697B689A4203D22F4B7A6818
:102790001A602EE0BB68043318462D4B9847BB687F
:1027A0009B6A002B04D0BB6818331846284B984707
:1027B000BB68DB6A01229A40264B1B681A43254BF3
:1027C0001A60BB68DA6A13469B0013449B00224AD6
:1027D0001A44BB68043310461946204B9847BB681F
:1027E000DA6A1F4B1B68DB6A9A4201D301237B61C3
:1027F000B1E71B4B1B68DA6A174913469B00134469
:102800009B000B441B68012B07D901237B6104E06B
:10281000144B1B685A1C134B1A60134B1B68002B7C
:1028200001D001237B617B6918461837BD4680BD06
:10283000DCA50720C0A5072074A5072049150800BE
:1028400078A50720D4A50720192F08000800072025
:10285000D1120800C4A50720E8A407201912080017
:10286000E4A40720CCA50720D0A5072080B584B01C
:1028700000AF344B1B68002B03D0334B01221A608E
:102880005CE0314B00221A60304B1B681A682F4BFA
:102890001B681B6B9A4208D82C4B1A682B4B1B6881
:1028A0003433104619462A4B9847284B1B681B6B3C
:1028B000184628491422284B98470346002B08D075
:1028C000224B1A68214B1B68343310461946204BA3
:1028D0009847224B1B687B607B68B3FA83F3FB70DD
:1028E000FB78C3F11F03FB601D49FA6813469B0088
:1028F00013449B000B441B68002B02D1194B9847D3
:10290000FEE7FA6813469B0013449B00144A1344E5
:10291000BB60BB685B685A68BB685A60BB685A6832
:10292000BB6808339A4204D1BB685B685A68BB68CD
:102930005A60BB685B68DA68044B1A601037BD46A2
:1029400080BD00BFDCA50720D0A50720E4A4072098
:10295000E9370800943D0800AD3A0800C4A50720F7
:10296000E8A407204915080080B584B000AF78605E
:1029700039607B68002B02D11A4B9847FEE71A4B4F
:102980001B68183378681946184B9847164B1B6814
:1029900004331846164B98470346002B0BD1124BB5
:1029A0001B68DB6A012202FA03F3DA43114B1B684E
:1029B0001A40104B1A603B68B3F1FF3F07D10A4B36
:1029C0001B6804330C4819460C4B984707E00C4B26
:1029D0001A683B681344FB60F8680A4B9847103745
:1029E000BD4680BD49150800E4A407206112080017
:1029F000D1120800C4A50720A8A5072019120800B5
:102A0000C0A50720152E080080B584B000AF7860FF
:102A100039607B68002B02D1144B9847FEE7144BBA
:102A20001B68183378681946124B9847104B1B687F
:102A300004331846104B98470346002B0BD10C4B20
:102A40001B68DB6A012202FA03F3DA430B4B1B68B3
:102A50001A400A4B1A600A4B1A683B681344FB6021
:102A6000F868084B98471037BD4680BD49150800E7
:102A7000E4A4072019120800D1120800C4A50720F9
:102A8000C0A50720152E080080B584B000AF78607F
:102A90007B68DB68DB68BB60BB68002B02D1214B25
:102AA0009847FEE7BB68183318461F4B98471F4BE3
:102AB0001B68002B1CD1BB68043318461A4B98477F
:102AC000BB68DB6A01229A40194B1B681A43184BFA
:102AD0001A60BB68DA6A13469B0013449B00154AD0
:102AE0001A44BB68043310461946134B984705E057
:102AF000BB681833114819460F4B9847BB68DA6A10
:102B00000F4B1B68DB6A9A4205D90123FB600D4B12
:102B100001221A6001E00023FB60FB6818461037B1
:102B2000BD4680BD49150800D1120800DCA507206C
:102B3000C4A50720E8A40720191208007CA50720D7
:102B4000E4A40720D0A5072080B582B000AF78604C
:102B50007B68002B02D1074B9847FEE7064B1A68AB
:102B60007B681A60054B1A687B685A600837BD4657
:102B700080BD00BF49150800D4A50720C0A50720C7
:102B800080B584B000AF786039607B68002B02D1DB
:102B9000214B9847FEE73B68002B02D11E4B98471C
:102BA000FEE71E4B98471E4B1B68BB603B681B68CB
:102BB000B3F1FF3F02D10023FB6026E07B681A6877
:102BC000184B1B689A4207D07B685A68BB689A42C8
:102BD00002D80123FB6018E07B685B68BA68D21AF0
:102BE0003B681B689A420ED23B681A687B6859683A
:102BF000BB68CB1A1A443B681A6078680A4B98473E
:102C00000023FB6001E00123FB60084B9847FB6851
:102C100018461037BD4680BD49150800CD14080080
:102C2000C0A50720D4A50720492B080011150800CE
:102C300080B400AF034B01221A60BD465DF8047BEF
:102C4000704700BFD0A5072080B582B000AF786084
:102C5000044B9847044B1B68012B01D9034B984741
:102C6000F6E700BF892D0800E8A40720AD1408008E
:102C700080B586B000AFF860B9607A603B60002331
:102C80007B6112E0BA687B6913441A78F9687B6942
:102C90000B4430331A71BA687B6913441B78002BDC
:102CA00000D105E07B6901337B617B69092BE9D9A0
:102CB000FB68002283F83D207B68042B01D90423A4
:102CC0007B60FB687A68DA62FB687A681A64FB6882
:102CD00000225A64FB68043318460A4B9847FB6885
:102CE00018331846074B9847FB68FA681A617B68E7
:102CF000C3F10502FB689A61FB68FA685A621837EB
:102D0000BD4680BD0112080080B582B000AF00232F
:102D10007B600CE07A6813469B0013449B00114AC9
:102D200013441846104B98477B6801337B607B68DF
:102D3000042BEFD90D480C4B98470D480A4B984788
:102D40000C48094B98470C48074B98470B48064BD3
:102D500098470B4B054A1A600A4B054A1A60083718
:102D6000BD4680BDE8A40720C11108004CA507207E
:102D700060A507207CA5072090A50720A8A507200F
:102D800074A5072078A5072080B582B000AF28E0A1
:102D9000174B9847174B1B68002B14BF00230123C8
:102DA000DBB27B60144B98477B68002B19D1134B27
:102DB0009847104BDB68DB683B603B680433184680
:102DC0000F4B98470F4B1B685A1E0E4B1A600E4B49
:102DD0001B685A1E0C4B1A600C4B984738680C4BFA
:102DE0009847094B1B68002BD2D10837BD4680BDE0
:102DF0008525080090A50720A1250800CD1408000E
:102E0000D1120800BCA50720A4A5072011150800B1
:102E1000F52E080080B582B000AF7860134B1B68B8
:102E20007A685A60124B1B687A689A4209D2114B31
:102E30001A680E4B1B680433104619460E4B984710
:102E400010E00E4B1A68094B1B68043310461946F4
:102E5000094B98470A4B1B687A689A4202D2084B82
:102E60007A681A600837BD4680BD00BFE4A4072019
:102E7000C0A5072078A507206112080074A50720C7
:102E80000800072080B584B000AF03463960FB809E
:102E90004820154B9847F860FB68002B1FD03B6813
:102EA000002B06D1FB889B0018460F4B9847034622
:102EB00000E03B68FA681363FB681B6B002B05D1CD
:102EC000F8680A4B98470023FB6008E0FB681A6B20
:102ED000FB889B001046A5211A46054B9847FB68C6
:102EE00018461037BD4680BD6D160800E51708006E
:102EF000013C080080B582B000AF78607B681B6B36
:102F00001846044B98477868024B98470837BD46E7
:102F100080BD00BFE517080080B483B000AF0E4B42
:102F20001B681B68002B01D1012300E00023002B4C
:102F300004D00A4B4FF0FF321A6008E0064B1B68C2
:102F4000DB68DB687B607B685A68044B1A600C376F
:102F5000BD465DF8047B704774A507200800072074
:102F600080B483B000AF0B4B1B68002B02D1012350
:102F70007B6008E0084B1B68002B02D102237B60BA
:102F800001E000237B607B6818460C37BD465DF886
:102F9000047B7047C8A50720DCA5072080B584B056
:102FA00000AF78607B68FB607B68002B62D0FB68B9
:102FB000DA6A324B1B68DB6A9A425BD2FB689B6918
:102FC000002B06DB2D4B1B68DB6AC3F10502FB6897
:102FD0009A61FB685969FB68DA6A13469B001344DF
:102FE0009B00274A1344994201D1012300E00023AA
:102FF000002B3AD0FB6804331846224B984703460F
:10300000002B15D1FB68DA6A1D4913469B00134457
:103010009B000B441B68002B0AD1FB68DB6A012272
:1030200002FA03F3DA43184B1B681A40164B1A6076
:10303000124B1B68DA6AFB68DA62FB68DB6A012202
:103040009A40114B1B681A430F4B1A60FB68DA6AEF
:1030500013469B0013449B00094A1A44FB6804333F
:1030600010461946094B984704E0044B1B68DA6A7E
:10307000FB68DA621037BD4680BD00BFE4A40720BC
:10308000E8A40720D1120800C4A5072019120800DF
:1030900080B584B000AF78607B68BB600023FB60C4
:1030A0007B68002B56D0BB685B6C002B02D12C4B8D
:1030B0009847FEE7BB685B6C5A1EBB685A64BB68E6
:1030C000DA6ABB681B6C9A4244D0BB685B6C002B0D
:1030D00040D1BB6804331846224B98470346002B67
:1030E00015D1BB68DA6A204913469B0013449B0044
:1030F0000B441B68002B0AD1BB68DB6A012202FA71
:1031000003F3DA43194B1B681A40184B1A60BB686B
:103110001A6CBB68DA62BB68DB6AC3F10502BB6884
:103120009A61BB68DB6A01229A40104B1B681A4304
:103130000E4B1A60BB68DA6A13469B0013449B006F
:10314000094A1A44BB68043310461946084B98478D
:103150000123FB60FB6818461037BD4680BD00BFE9
:1031600049150800D1120800E8A40720C4A50720CB
:103170001912080080B400AF074B1B68002B04D065
:10318000054B1B685A6C01325A64034B1B68184686
:10319000BD465DF8047B7047E4A4072090B587B076
:1031A00004AF00237B60104B9847104B1B68002B2B
:1031B0000FD00223009300230193002302930023E6
:1031C00003930B480B494FF4827200230A4CA0472B
:1031D00078607B68002B02D1084B9847FEE77B683C
:1031E00018460C37BD4690BDD136080010A6072002
:1031F00019330800A83D0800852308004915080078
:1032000090B589B000AFF860B9607A603B60002388
:10321000FB611D4B1B68002B30D0BB683B617B689A
:103220007B61FB68BB61BB68052B1CDC174B9847B7
:103230000346022B0BD1144B1A6807F110031046FA
:1032400019463A6B0023124CA047F86116E00E4B6A
:103250001A6807F1100310461946002200230C4C8F
:10326000A047F8610AE0084B1A6807F110031046FE
:1032700019463A680023074CA047F861FB691846D5
:103280002437BD4690BD00BF10A60720612F08005F
:10329000511B0800151D080090B587B002AF78607B
:1032A0003960184B1B68DB68DB68FB60FB68043324
:1032B0001846154B9847FB68DB69012B1BD1FB684F
:1032C0009A697B681344F86819463A687B680F4C22
:1032D000A0470346012B0ED100230093F86800217C
:1032E0007A6800230A4CA047B860BB68002B02D163
:1032F000084B9847FEE7FB685B6AF8689847143705
:10330000BD4690BD08A60720D11208005D34080014
:10331000013208004915080080B584B000AF78601C
:1033200007F108031846054B9847F860BB68F86832
:103330001946034B9847034B9847F1E7CD330800F4
:1033400049330800E534080080B584B000AF7860E8
:103350003960174B984707F108031846154B9847F3
:10336000F860BB68002B1ED13B68002B0AD17A683D
:10337000FB689A4206D8104B98477868F9680F4B5B
:10338000984712E00E4B1A687968FB68CB1A104612
:1033900019460C4B9847084B98470346002B04D11D
:1033A000094B984701E0044B98471037BD4680BD54
:1033B0008525080015340800A12508009932080069
:1033C00010A607201D230800AD14080080B485B0A6
:1033D00000AF78600E4B1B681B68002B14BF0023E6
:1033E0000123DBB21A467B681A607B681B68002BDE
:1033F00005D1074B1B68DB681B68FB6001E00023FD
:10340000FB60FB6818461437BD465DF8047B7047C7
:1034100008A6072080B584B000AF78600C4B9847B1
:10342000F8600C4B1B68FA689A4205D20A4B984721
:103430007B6801221A6002E07B6800221A60054B5B
:10344000FA681A60FB6818461037BD4680BD00BF99
:10345000C526080014A607201136080080B586B0DE
:1034600000AFF860B9607A603B6000237B61FB6865
:10347000BA685A60FB68FA681A61BA687B689A424F
:1034800012D87A683B68D21AFB689B699A4202D3C9
:1034900001237B611BE0104B1A68FB680433104664
:1034A00019460E4B984712E07A683B689A4206D25A
:1034B000BA683B689A4202D301237B6107E0084B5C
:1034C0001A68FB68043310461946044B98477B6919
:1034D00018461837BD4680BD0CA6072061120800AB
:1034E00008A6072090B58BB002AF70E0BB68002B38
:1034F0006DDB3B69FB61FB695B69002B04D0FB69F9
:10350000043318463A4B98473B1D1846394B9847A9
:10351000B861BB68092B59D801A252F823F000BF4B
:10352000493508004935080049350800CD350800FF
:103530009B350800C53508004935080049350800A5
:10354000CD3508009B350800FA68FB699B691A4471
:10355000FB68F8691146BA69274CA0470346012B5E
:103560001AD1FB695B6AF8699847FB69DB69012B33
:1035700012D1FA68FB699B69134400220092F86932
:1035800000211A4600231D4CA04778617B69002B5F
:1035900002D11B4B9847FEE719E0FA68FB699A6174
:1035A000FB699B69002B02D1154B9847FEE7FB692D
:1035B0009A69BB691344F8691946BA69BB690E4C2C
:1035C000A04704E0F8690F4B984700E000BF0E4B9E
:1035D0001A6807F1080310461946002200230B4C15
:1035E000A0470346002B81D12437BD4690BD00BFC4
:1035F000D1120800153408005D34080001320800BB
:1036000049150800E517080010A60720111E08003C
:1036100090B589B002AF3DE0274B1B68DB681B68A3
:103620007B61254B1B68DB68DB683B613B690433CE
:103630001846224B98473B695B6A386998473B6953
:10364000DB69012B26D13B699A697B691344FB60D6
:10365000FA687B699A420ED93B69FA685A603B69FD
:103660003A691A61144B1A683B69043310461946CB
:10367000134B98470EE000230093386900217A69C4
:103680000023104CA047B860BB68002B02D10E4B42
:103690009847FEE7084B1B681B68002BBCD1064B04
:1036A0001B687B60094B1A68034B1A60074B7A68EA
:1036B0001A601C37BD4690BD08A60720D11208002D
:1036C0006112080001320800491508000CA6072005
:1036D00080B500AF114B9847114B1B68002B1AD1D6
:1036E0001048114B984711480F4B9847104B0D4A03
:1036F0001A60104B0D4A1A6005200C2100220E4B57
:1037000098470246064B1A60054B1B68002B02D1F6
:103710000A4B9847FEE70A4B984780BDCD14080036
:1037200010A60720E0A50720C1110800F4A5072076
:1037300008A607200CA60720C51A0800491508008E
:103740001115080080B485B000AF78607B6803F085
:103750000703FB600C4BDB68BB60BA684FF6FF03E6
:103760001340BB60FB681A02BB68134343F0BF639E
:1037700043F40033BB60044BBA68DA601437BD46CB
:103780005DF8047B704700BF00ED00E080B500AF3E
:10379000044B98475620044B9847044B9847002306
:1037A000184680BDB1370800950808002538080084
:1037B00080B500AF044B98470020044B9847044B5A
:1037C0009847044B984780BD3104080045370800EE
:1037D00085050800D538080080B500AF014B984733
:1037E000FEE700BF4915080080B582B000AF7860E1
:1037F0003960014B9847FEE74915080080B500AFD6
:103800000448054B98475520044B98470148044B02
:10381000984780BD501A0E40D90E08009508080040
:10382000B10E080090B585B004AF012300930023CA
:10383000019300230293002303930C480C49822236
:1038400041F234230B4CA047012300930023019342
:10385000002302930023039307480849822245F27C
:103860007863044CA047064B9847FEE7853808006C
:10387000B03D080085230800AD380800B43D0800BD
:103880000525080080B582B000AF78607A6841F203
:1038900034239A4202D0034B9847FEE75720024B4D
:1038A0009847FBE7491508002D08080080B582B04D
:1038B00000AF78607A6845F278639A4202D0034B91
:1038C0009847FEE75720024B9847FBE74915080049
:1038D0006108080080B582B000AF00237B600FE074
:1038E0000A4B7A6853F8223018464FF06051084B63
:1038F000984778680021074B98477B6801337B60C5
:103900007B68022BECD90837BD4680BDB83D080066
:10391000F50808001939080080B582B000AF78605A
:1039200039607B68022B23D87B68002B06D13B686B
:10393000002B14BF00230123DBB23B603B68002B4C
:103940000BD00D4B98470D4B7A6853F82230184630
:103950000B4B98470B4B98470AE0074B9847074B90
:103960007A6853F822301846074B9847054B98471A
:103970000837BD4680BD00BFCD140800B83D080023
:1039800061080800111508002D08080090B587B0DF
:1039900000AF0023FB602648264B984778612448F7
:1039A000254B984738617A693B6913407B617B6995
:1039B00003F00203002B17D0204B196807F10B020C
:1039C00007F10C03084611461A461D4B984703465B
:1039D000012B05D1FB7A164819461A4B984703E08C
:1039E00013480221184B98477B6903F00103002B11
:1039F00013D03B1D0E481946144B98477B68DBB229
:103A0000FB72134B196807F10B0207F10C03084610
:103A100011461A4600230F4CA047FB68002B03D029
:103A20000D4B4FF080521A601C37BD4690BD00BF51
:103A300000800940D50D0800BD0D08001CA6072018
:103A40000D200800ED0D0800A10D0800310E080042
:103A500018A60720151D080004ED00E070B50F4EF4
:103A60000F4D761BB61007D0043D0024013455F8E5
:103A7000043F9847A642F9D10A4E0B4D00F0A6F933
:103A8000761BB61008D0043D0024013455F8043FDD
:103A90009847A642F9D170BD70BD00BFD83D08005F
:103AA000D83D0800E03D0800D83D0800032A70B466
:103AB00028D940EA01039B0713D005780C78A5426A
:103AC00024D1013A002305E010F8015F11F8014FFD
:103AD000A5421BD1934203F10103F5D1002070BC34
:103AE00070470C46034625681E682146AE421846BC
:103AF00004F1040403F1040304D1043A032A184630
:103B00002146F0D8002AD8D11046E8E7281B70BC1F
:103B1000704700BF844641EA000313F0030349D114
:103B2000403A23D30B6803604B6843608B68836023
:103B3000CB68C3600B6903614B6943618B69836127
:103B4000CB69C3610B6A03624B6A43628B6A83620F
:103B5000CB6AC3620B6B03634B6B43638B6B8363F7
:103B6000CB6BC36340304031403ADBD230320BD3B1
:103B70000B6803604B6843608B688360CB68C360ED
:103B800010301031103AF3D20C3205D351F8043B07
:103B900040F8043B043AF9D2043208D0D2071CBFE3
:103BA00011F8013B00F8013B01D30B88038060460C
:103BB000704700BF082A13D38B07B1D010F003035E
:103BC000AED0C3F10403D21ADB071CBF11F8013BCE
:103BD00000F8013BA4D331F8023B20F8023B9FE7F9
:103BE000043AD9D3013A11F8013B00F8013BF9D26C
:103BF0000B7803704B7843708B7883706046704706
:103C0000F0B4840743D0541E002A3ED0CDB2034600
:103C100003E0621E002C38D0144603F8015B9A07BB
:103C2000F7D1032C2AD9CDB245EA05250F2C45EA58
:103C3000054515D9A4F110073F0903F1100606EB5D
:103C400007161A46156055609560D5601032B2426D
:103C5000F8D104F00F040137032C03EB07130DD93F
:103C60001E462246043A032A46F8045BFAD8221F6D
:103C700022F003020432134404F003042CB1C9B24D
:103C80001C4403F8011BA342FBD1F0BC704714464F
:103C90000346C6E7024B13B1024800F005B870476F
:103CA00000000000B53C0800014600200246034623
:103CB00000F018B838B5094D094C641BA41018BFA2
:103CC00005EB840505D0013C55F8043D9847002CD0
:103CD000F9D1BDE8384000F083B800BFEC3D0800E2
:103CE000F03D0800F0B5274C85B026680746D6F8A9
:103CF0004841002C40D065681F2D1EDD224818B9B0
:103D00004FF0FF3005B0F0BD4FF4C8700391029240
:103D10000193AFF3008003990446029A019B0028A7
:103D2000EED0D6F848510020256060600546C6F800
:103D30004841C4F88801C4F88C013FB96B1C0020CD
:103D40000235636044F8251005B0F0BD0126AE4091
:103D500004EB8500C0F88820D4F88821022F42EABD
:103D60000602C4F88821C0F80831E7D1D4F88C31B4
:103D70001E43C4F88C61E1E706F5A674C6F8484115
:103D8000B9E700BFC83D08000000000049444C45A9
:103D900000000000A5A5A5A5A5A5A5A5A5A5A5A567
:103DA000A5A5A5A5A5A5A5A5546D7220537663006C
:103DB0004F4E00004F464600560000003B000000FA
:103DC000550000004300000010000720F8B500BFB8
:103DD000F8BC08BC9E467047953C080019010800D5
:103DE000F8B500BFF8BC08BC9E467047F500080057
:103DF00000093D00AAAAAAAAFFFFFFFF00000000D9
:103E000000000000FC02072064030720CC03072009
:103E100000000000000000000000000000000000A2
:103E20000000000000000000000000000000000092
:103E300000000000C43D0800000000000000000079
:103E40000000000000000000000000000000000072
:103E50000000000000000000000000000000000062
:103E60000000000000000000000000000000000052
:103E70000000000000000000000000000000000042
:103E80000000000000000000000000000000000032
:103E90000000000000000000000000000000000022
:103EA0000000000000000000010000000000000011
:103EB0000E33CDAB34126DE6ECDE05000B000000D6
:103EC00000000000000000000000000000000000F2
:103ED00000000000000000000000000000000000E2
:103EE00000000000000000000000000000000000D2
:103EF00000000000000000000000000000000000C2
:0400000380000EF972
:00000001FF
